:020000040801F1
:10000000A0E3012059020108695904086159040854
:1000100065590408BF110108AD92040800000000F2
:10002000000000000000000000000000A101010825
:100030004F13010800000000F50101089D75040838
:1000400073020108730201087302010873020108B8
:1000500073020108730201087302010873020108A8
:100060007302010873020108730201087302010898
:100070007302010873020108730201087302010888
:100080007302010873020108730201087302010878
:100090007302010873020108730201087302010868
:1000A00073020108997604087302010873020108BB
:1000B0007302010873020108730201087302010848
:1000C0007302010873020108730201087302010838
:1000D0007302010829810408DD8104089182040863
:1000E0007302010873020108730201087302010818
:1000F0007302010873020108730201087302010808
:1001000073020108730201087302010873020108F7
:1001100073020108730201087302010873020108E7
:1001200073020108730201087302010873020108D7
:1001300073020108730201087302010873020108C7
:1001400073020108730201087302010873020108B7
:1001500073020108730201087302010873020108A7
:100160007302010873020108730201087302010897
:100170007302010873020108730201080000000005
:100180007302010873020108DFF810D000F064FF69
:100190000048004755BD0408AFF30080A0E30120EC
:1001A0002A4B19680868B0E8F04F80F30988BFF35C
:1001B0006F8F4FF0000080F311887047000000003F
:1001C00006480068006880F3088862B661B6BFF32D
:1001D0004F8FBFF36F8F00DF00BF00BF08ED00E05F
:1001E000DFF80C00016841F470010160704700BF46
:1001F00088ED00E0EFF30980BFF36F8F134B1A68AF
:100200001EF0100F08BF20ED108A20E9F04F10609B
:1002100008B44FF0500080F31188BFF34F8FBFF345
:100220006F8F3DF0DBFD4FF0000080F3118808BCBC
:1002300019680868B0E8F04F1EF0100F08BFB0EC66
:10024000108A80F30988BFF36F8F70473432002023
:10025000EFF30580704700000648804706480047D6
:10026000FEE7FEE7FEE7FEE7FEE7FEE7FEE7FEE766
:10027000FEE7FEE779760408890101082DE9F05FC1
:100280000546002092469B46884606468146402405
:100290001BE0284641464746224600F051F85346A7
:1002A0005A46C01A914110D311461846224600F012
:1002B0005DFB2D1A67EB01084F4622460120002105
:1002C00000F054FB17EB00094E41201EA4F101047D
:1002D000DFDC484631462A464346BDE8F09F2DE91B
:1002E000F0410024061B254671F1000605DA0124C1
:1002F0000027D0EB070067EB0101161E73F1000623
:1003000005DA0027D2EB0702012567EB0303FFF7AD
:10031000B5FF86460E4617469C46AC4204D00025E3
:10032000D0EB050E65EB010624B10020D2EB0007EF
:1003300060EB030C704631463A466346BDE8F081F7
:10034000202A04DB203A21FA02F00021704721FA2A
:1003500002F3D040C2F12002914008431946704791
:10036000A0F14101192900D8203070470649074AF9
:100370000868504343F2390210440860400870474F
:100380000149086070470000AC4300206D4EC64133
:1003900010B540EA01040346A40703D009E010C9E0
:1003A000121F10C3042AFAD203E011F8014B03F81C
:1003B000014B521EF9D210BDD2B201E000F8012B60
:1003C000491EFBD270470022F6E710B513460A46D5
:1003D00004461946FFF7F0FF204610BD30B505462C
:1003E0002A460B4612F8010B13F8014B08B1A04244
:1003F000F8D01CB1002802D06D1CF1E7284630BDB2
:1004000010B5044604E00B7800F8013B03B1491C29
:10041000521EF8D2204610BD421C10F8011B0029C4
:10042000FBD1801A704710B5002200E0521C835C9B
:100430008C5CA34201D1002BF8D1D8B2E1B2401AB2
:1004400010BD30B504460020034600E05B1C93421B
:1004500003D2E05CCD5C401BF8D030BD034611F800
:10046000012B00F8012B002AF9D11846704730B54E
:1004700005460020034600E05B1C934205D2EC5C7D
:10048000C85C201A01D1002CF6D130BD70B50646EB
:1004900039F05CFE046805460A220021304600F06F
:1004A000A5FC2C6070BD2DE9FE4F804681EA03005B
:1004B000C00F0C46009021F0004123F00045B8EB3E
:1004C0000200A94105D24046214690461C460B46F3
:1004D000024623F00040104347D0270DC7F30A001F
:1004E000C3F30A510290401A019040286BDAC3F31B
:1004F000130040F4801B0098924620B10023D2EBF9
:10050000030A63EB0B0B01985946C0F140025046B9
:1005100000F02CFA06460D4650465946019A00F066
:1005200034FA10EB08006141002487EA115284EA92
:10053000E7731A4340D0009A62B3019A012A4FEA46
:10054000075215DC001B61EB02014FF0004202EA8A
:100550000752CDE90042001C41F5801132462B467E
:1005600000F0C2FC03B0BDE8F08F40462146F9E739
:10057000001B61EB0201001C41F5801300185B4178
:100580002018A2F5001747EB030140EAD570B61911
:100590006D4111E06D084FEA360645EAC0754FEA35
:1005A0000752001B61EB0201001C41F58011490854
:1005B0004FEA30000019514132462B4603B0BDE8E6
:1005C000F04F00F082BC0098012240000023D0EBE5
:1005D000020263EBE073009821464FEAE074B8EB47
:1005E000000061EB0401E9E783F000435BE781F081
:1005F000004158E72DE9FE4F81EA030404F000446E
:1006000021F0004100944FF0000B23F0004350EA2A
:1006100001045ED052EA03045BD0C3F30A54C1F371
:100620000A552C44A4F2F3340194A0FB0254C1F304
:10063000130141F48011C3F3130343F4801301FB4E
:10064000024400FB034E840A970A44EA815447EAB5
:100650008357A4FB076802958D0A05FB07854FEABF
:10066000932C04FB0C542705029D4FEA065847EAD9
:100670001637B5EB08056EEB070C870E920E47EAAE
:10068000811742EA8312A7FB0201B6EB0B0164EB70
:1006900000042B0D43EA0C335E1844EB1C50DA4681
:1006A0005146E7FB0201C5F313044FEA0B3343EA5B
:1006B00014534FEA0432019C43EA0603A4F10C04EC
:1006C0000294009CCDE900B400F00EFC03B0BDE83C
:1006D000F08F00200146F9E72DE9F04D81EA03048F
:1006E00004F0004B21F0004514464FF0000A23F0BF
:1006F000004150EA050220D054EA01021DD0C5F3A2
:100700000A570246C5F31303C1F31300C1F30A5697
:1007100040F4801543F48013A7EB0608101BD6465F
:1007200008F2FD3873EB050002D308F1010801E07F
:1007300092185B41B8F1000F03DA00200146BDE8D2
:10074000F08D00204FF48011064684460EE0171B02
:1007500073EB050705D3121B63EB050306434CEA55
:10076000010C49084FEA300092185B4150EA01073A
:10077000EDD152EA030012D082EA040083EA0501B7
:10078000084305D0101BAB4106D20122002306E02E
:1007900000224FF0004302E06FF0010253101AEB09
:1007A00006004CEB085110EB0A0041EB0B01BDE8D1
:1007B000F04D00F08ABB0EB540F2334102910021AA
:1007C000CDE900110A460B4600F08EFB03B000BDD8
:1007D00010B500F0004420F00040C20DC0F3160038
:1007E00040F400007F2A02DA0020014610BD0021FB
:1007F000962A03DCC2F19602D04002E0963A00F05D
:10080000B5F8002CF2D00023D0EB030063EB01011C
:1008100010BD70B5C1F30A5201F000450024C1F3C8
:10082000130140F2FF3341F480119A4201DA0020B3
:1008300070BD40F233439A42A2F2334203DC52428B
:10084000FFF77EFD00E090402C43F1D0404270BDA8
:10085000C1F30A5210B5C1F3130140F2FF3341F462
:1008600080119A4201DA002010BD40F233439A42CF
:10087000A2F2334203DC5242FFF762FD10BD90400A
:1008800010BD00F0004230F000400AD0C10D01F56B
:100890006071C0F3160042EA0151C20840071143DB
:1008A000704700200146704730B5041E71F1000406
:1008B00004DB4FF00044404264EB0101141E73F16D
:1008C000000405DB1C464FF00043524263EB040377
:1008D0008B4208BF824230BD30B5041E71F1000466
:1008E00004DB4FF00044404264EB0101141E73F13D
:1008F000000405DB1C464FF00043524263EB040347
:10090000994208BF904230BD01F0004330B421F05D
:10091000004150EA010206D00A0DA2F56072C1F34F
:100920001301002A02DC30BC00207047440F44EA67
:10093000C104C100E01830BC00EBC25000F08EBA18
:1009400030B50B46014600202022012409E021FA9F
:1009500002F59D4205D303FA02F5491B04FA02F59C
:100960002844151EA2F10102F1DC30BD202A04DB6F
:10097000203A00FA02F1002070479140C2F12003B2
:1009800020FA03F3194390407047202A06DBCB1767
:10099000203A41FA02F043EAE07306E041FA02F33A
:1009A000D040C2F120029140084319467047000030
:1009B0002DE9FF4F087883B09946FF2805D0491CE0
:1009C0002D2804D00024002008E000200BE00124A2
:1009D000F9E700EB800003EB4000491C0B78FF2B8C
:1009E000F7D104B1404200230293147819461D4602
:1009F0002D2C01D02B2C04D1521C2D2C13D00024D3
:100A00000294AA461478FF2C0FD00A25A3FB057880
:100A100001FB05814FF0000C03FB0C11521CE31984
:100A20004AEB0101EEE70124EAE7814453EA0100C1
:100A300002D019F5C87F06DA03980021C0E9001139
:100A400007B0BDE8F08F0025AE4E2F46DFF8B88224
:100A5000184600F07DFBCDE90001B9F1000002DA93
:100A6000C9F1000400E004460023A74A1AEB030B77
:100A700042EB045A12E0E00707D02A4633463846D4
:100A80004146FFF7B7FD074688462A4633461046DB
:100A90001946FFF7AFFD05460E466410002CEAD15B
:100AA000DDE90001B9F1000F5A46534606DAFFF7B7
:100AB00013FE3A464346FFF70FFE05E0FFF79AFDA7
:100AC0003A464346FFF796FD029A0AB181F000418B
:100AD000039AC2E90001B3E72DE9FF4F1F468DB02D
:100AE000D7E901464FF0FF382E2045464FF0000968
:100AF0000B90B9696D1C0E988847396A8246884701
:100B00000028F6D1BAF1FF3F0AD024F4D064002EB9
:100B100011DDBAF12B0F08D0BAF12D0F0BD102E085
:100B2000404611B08DE744F48064B9696D1C0E989D
:100B300088478246761E6946600501D52D2000E073
:100B40002B208DF8000001F1010B0DF1200809E0C8
:100B5000B9696D1C0E98884782460F9844F400745A
:100B6000761E0560002E02DDBAF1300FF0D00B9931
:100B70008A453ED144F0800406E00F99681CA9F133
:100B8000010944F400740860B9696D1C761E0E9862
:100B9000884782463028F0D02BE00B998A4505D152
:100BA000200603D444F08004761E18E050463AF044
:100BB000D1FA08B30DF11301761E44F400748B458D
:100BC00008D2AAF130000BF8010B200607D5A9F1D5
:100BD000010003E0200602D409F101008146A005CE
:100BE00002D50F99681C0860B9696D1C0E9888477A
:100BF0008246002ED1DC53E0002E51DDBAF1650FA4
:100C000002D0BAF1450F4BD1A00549D5B9696D1C89
:100C100024F44074761E0E9888478246002E0CDD20
:100C20002B2804D0BAF12D0F07D144F48074B96990
:100C30006D1C0E9888478246761EE00501D52D2151
:100C400000E02B2108F8011BCDF82C8021E00DF1EC
:100C50002901761E44F4007488450CD2AAF13000B4
:100C600010F0FF0088F8000002D10B99884509D9DF
:100C700008F1010806E0E00501D5244801E042F250
:100C80000F708146B9696D1C0E98884782460F988F
:100C90000560002E04DD50463AF05CFA0028D6D1FB
:100CA000F9690E988847FF208BF8000088F800004B
:100CB0000020069007904B466A4608A906A8FFF751
:100CC00077FEA00502D46FF001002AE714F0240F8C
:100CD0000AD0E00714D1DDE906123868031D3B6035
:100CE0000068C0E900120BE0DDE90601FFF70CFE29
:100CF0000146E00704D13868021D3A6000680160CF
:100D000028460EE7000014400000F03FF1D8FFFF36
:100D1000426842B1016811F8013B23B1521EC0E99B
:100D20000012184670470121C160881E7047426852
:100D30005AB1C368016843B983688B4205D0491E24
:100D4000521CC0E90012002070474FF0FF3070477E
:100D50000FB4002300B589B00CA900910B996FF076
:100D60000042CB601E4B06931E4B07930423CDE934
:100D700001321D4A089202466B460020FFF7ACFE86
:100D800009B05DF814FB70B586B006464FF0FF3031
:100D90000091CDE90101002015460C460490324631
:100DA000694604A8FFF7D4FF02460498211825B12C
:100DB00008B1084600E020462860049800280DD0BD
:100DC000002A02DD0098884208D0081B0094CDE973
:100DD00001043246694604A8FFF7BAFF06B070BDA9
:100DE000110D01082F0D0108851001082DE9F047AC
:100DF00091460F4680460446002614F8015B2DB14B
:100E000000F03CF90068405DC007F6D12B2D02D000
:100E10002D2D18D0641E4A463946204600F049F967
:100E200027B13968A14201D1C7F8008071054FF0A0
:100E300002040BD54042002803DD39F087F9046035
:100E4000A007BDE8F08746F48066E4E70028F8DAFA
:100E500039F07CF904606FF00040F2E70029A8BF88
:100E60007047401C490008BF20F00100704710B4D3
:100E7000B0FA80FC00FA0CF050EA010404BF10BC88
:100E8000704749B1CCF1200421FA04F411FA0CF1B5
:100E900018BF012121430843A3EB0C01CB1D4FEAEE
:100EA00000614FEA102042BF002010BC704700EBE9
:100EB000C35010440029A4BF10BC7047401C490017
:100EC00008BF20F0010010BC704710B5141E73F16C
:100ED000000408DA401C41F1000192185B411A43FA
:100EE00001D120F0010010BD2DE9F04D92469B4646
:100EF00011B1B1FA81F202E0B0FA80F220329046EC
:100F0000FFF734FD04460F4640EA0A0041EA0B01B0
:100F100053465A46084313D0114653EA010019D0EC
:100F2000C8F140025046FFF70BFA05460E46504600
:100F300059464246FFF71AFD084305D0012004E058
:100F400020463946BDE8F08D0020054346EAE076AC
:100F50002C4337430A986305E40AA0EB08000022FB
:100F6000FD0A44EA47540A3002D500200146E9E769
:100F7000010510196941DDE9084500196941BDE81D
:100F8000F04DA2E72DE9F04D00231A461B1A8A41C5
:100F900003DB00200146BDE8F08DC1F30A52C1F326
:100FA000130141F480154FF0000BD10702D1001856
:100FB0006D41521E0027044640F2FF11384601EBF6
:100FC000620A3E468046024600204FF48011FFF739
:100FD000B7F9C2197141BB1846EB0100B4EB030C21
:100FE00075EB000C04D3E41A65EB000517460E46BA
:100FF000241908F101006D4180463428E3DDF91918
:1010000046EB0600091BA84103D24FF0FF321346FE
:1010100001E0002213461BEB070046EB0A51BDE836
:10102000F04DFFF752BFC1F30A52C1F3130140F272
:10103000FF3341F480119A4202DA002001467047E2
:1010400040F233439A42A2F2334202DC5242FFF7AB
:1010500077B9FFF78BBC0000064C074D06E0E0684F
:1010600040F0010394E8070098471034AC42F6D3EF
:10107000FFF78EF858FD060878FD0608004870470F
:10108000C41D060810B50446FFF7F8FF0068005DB0
:1010900000F0010010BD3A2800D2303820F02002C4
:1010A000412A01D3A2F13700884201D34FF0FF302B
:1010B00070472DE9F05F82460078002715468B4681
:1010C0000AF10104B946302801D09DB113E014F8AB
:1010D000010B0127782803D0582801D045B10AE038
:1010E0000DB1102D07D10027102514F8010B02E0D7
:1010F000082500E00A250026B0460EE005FB0800A2
:1011000005FB06F1012701EB10461FFA80F8B6F542
:10111000803F00D3B94614F8010B2946FFF7BBFF07
:101120000028EBDABBF1000F05D00FB1641E00E020
:101130005446CBF80040B9F1000F06D039F006F85C
:1011400002210160C81EBDE8F09F48EA0640FAE7A8
:101150000EB540F2334202920022CDE9002213463E
:10116000FFF7C2FE03B000BD70B58C1810F8015B2C
:1011700015F0070301D110F8013B2A1106D110F830
:10118000012B03E010F8016B01F8016B5B1EF9D134
:101190002B0705D40023521E0DD401F8013BFAE7BA
:1011A00010F8013BCB1A921C03E013F8015B01F825
:1011B000015B521EF9D5A142D8D3002070BD00BFFB
:1011C000FEE72DE9F0410646D6F89805C4690027E8
:1011D00094F84E00032802D0042837D109E0237B7D
:1011E000628B3046216A37F0C2F8042084F84E0042
:1011F0002DE0217B304637F030FC0746012F24D10B
:10120000217B304637F020FC0546A16A481B0CD0F4
:10121000608BA84209D2A06A401BA062206A2844C1
:101220002062032084F84E0005E0002084F84E0080
:10123000304637F00DFB0420C6F8FC050022D6F836
:10124000FC15D6F8F4053BF0D5FA00E000BF00BF6E
:10125000BDE8F081F8B50546D5F89805C4690026C3
:1012600094F84D00012802D0022857D119E0208BB4
:10127000616A814208D901200090637B228B284655
:10128000E16937F089F808E001200090637BA08CC9
:1012900082B22846E16937F07FF8022084F84D00D9
:1012A0003DE0617B284637F0D8FB0646012E25D16C
:1012B000208B616A814208D9208B616A081A6062BA
:1012C000208BE1690844E06101E000206062606A0F
:1012D00018B1012084F84D0005E0002084F84D008D
:1012E000284637F0FEFA0420C5F8FC050022D5F8A0
:1012F000FC15D5F8F4053BF07DFA0EE0022E0CD17A
:10130000012084F84D000420C5F8FC050022D5F822
:10131000FC15D5F8F4053BF06DFA00E000BF00BF06
:10132000F8BD0146D1F89825D069002280F84E20FA
:1013300080F84D20002344221354082346221354DE
:101340000023452213544FF4612202647047704712
:101350000021074A12F81130834203D102EB410009
:1013600040787047491C0629F4D3012070470000DB
:10137000D8A405082DE9FF4FADF28C7D9A4626F0E2
:101380005DFB05464FF0000B50210DF5E760FFF7C0
:101390001AF80027CA97CB97CC97CD97C697C797CF
:1013A000C897C997342113A8FFF70DF820A80AF0B1
:1013B00071FAC4A8FFF76AF806460020914951F86F
:1013C0002020B24202D0401C0528F8D305282FD097
:1013D00002208DF87C008DF829738DF82A038DF892
:1013E0002803CA208DF82B0303208DF82C038DF8D9
:1013F0002D03FD208DF82E03CD9716960DF5E76190
:1014000013A81EF091F850EA010215D0CDE90201AF
:101410004FF45D7000907C4B7CA2002184A01EF0F4
:10142000E1FB4FF4807000210DF29C7DBDE8F08F50
:101430004FF480700021F7E700240DF5E960CAAF92
:101440000DF54E780DF54679CDF88807ADF83043A7
:101450000020CDE9107040226846DDF88817FEF7BD
:1014600097FF0DF5E7600FC81EF07AFA50EA010207
:101470000AD0CDE9020140F27B300090624B6EA2AF
:1014800000216BA01EF0AEFBCDE91098402268460B
:10149000DDF88817FEF77CFF0DF5E7600FC81EF03A
:1014A000A9F908430BD19DF81903012807D19DF82C
:1014B0001D03032803D19DF81E03FD2824D0A9682D
:1014C00014208847641C052CC0DB40226846DDF8E8
:1014D0008817FEF75DFF0DF5E7600FC81DF046FFAA
:1014E00050EA01020AD0CDE902014FF46D7000907C
:1014F000454B5BA200214EA01EF074FBBBF1000F18
:101500007BD0002001468FE79DF8380302F04CFEA7
:101510008AF8000020B19AF80000042805D05DE0A8
:10152000A9684FF47A708847CCE702208DF87C00D8
:1015300000248DF829438DF82A038DF82803CA204A
:101540008DF82B03C3208DF82C038DF82D4301203B
:101550008DF82E03CD9440F29B3ACDE910744022D1
:101560006846DDF88817FEF713FF0DF5E7600FC832
:101570001EF0F6F950EA01020AD0CDE902014FF45B
:1015800066700090204B3FA2002129A01EF02AFB8C
:101590001D4B47A2032126A0CDF800A01EF022FB80
:1015A000CDE9109840226846DDF88817FEF7F0FE76
:1015B0000DF5E7600FC81EF01DF908430AD19DF82C
:1015C0001903012806D19DF81D0318B99DF81E03C3
:1015D000012803D0A96832208847BEE7DDF89017BC
:1015E00002200870DDF88C0706604FF0010BDDF873
:1015F0009417CA20087068E7FFE74FF48070002155
:1016000012E7000094A4050899A505085B25733A24
:1016100025642920446A694C696E6B65725F496E66
:1016200069742C20737461743A256C6C640000003A
:1016300061646170746572005B25733A25642920CA
:10164000446A694C696E6B65725F53656E644D7375
:10165000672C20737461743A256C6C640000000080
:101660005B25733A25642920446A694C696E6B6571
:10167000725F4465496E69742C20737461743A25F5
:101680006C6C64005B25733A256429204C696E6B91
:1016900065722073656E64206D7367206661696C86
:1016A00065642C206572726E6F3A20256C6C640044
:1016B0005B25733A25642920436865636B20616963
:1016C0007263726166742076657273696F6E2E2E16
:1016D0002E00000002494978017000200146704741
:1016E000543600200021074A12F83130834203D1DA
:1016F00002EBC10040687047491C0629F4D302A0E0
:1017000070470000A8A40508556E6B6E6F776E00D9
:10171000014840687047000054360020024989782B
:101720000170002001467047543600200021074A0E
:1017300012F83130834203D102EBC1004068704798
:10174000491C0329F4D302A070470000E4A4050853
:10175000556E6B6E6F776E002DE9FF4FADF23C5DFD
:101760008346994626F06AF906464FF00008502154
:101770000DF59D60FEF727FE0027369737973897BF
:10178000399732973397349735973197342112A888
:10179000FEF719FE0DF5A8614B4606C95846FFF73E
:1017A000E9FD04460D462C4337D002208DF8780021
:1017B00000218DF8D9108DF8DA008DF8D800E520D9
:1017C0008DF8DB0065208DF8DC0003208DF8DD004E
:1017D000FD208DF8DE0039914FF0000A0DF59F6075
:1017E000CDF83805FE4850F82A0015900DF59D619A
:1017F00012A81DF099FE04460D4654EA050012D0C9
:101800004FF40670F64B00909633F6A20021CDE916
:101810000245FDA01EF0E6F98CE0002001460DF225
:101820004C5DBDE8F08F0027ADF8E070002036A9D0
:10183000CDE9101040226846DDF83815FEF7A8FD06
:101840000DF59D600FC81EF08BF80D46044654EA56
:1018500005000BD040F21F20E14B00909633ECA224
:101860000021CDE90245E8A01EF0BCF93AA832A952
:10187000CDE9101040226846DDF83815FEF788FDE6
:101880000DF59D600FC81DF0B5FF04460D4654EAE6
:1018900005000BD19DF8C900012807D19DF8CD00A6
:1018A000032803D19DF8CE00FD2827D0B16814206D
:1018B00088477F1C052FB7DB40226846DDF83815C6
:1018C000FEF766FD0DF59D600FC81DF04FFD0D463E
:1018D000044654EA05000BD040F23720C04B00907C
:1018E0009633D5A20021CDE90245C7A01EF07AF9B2
:1018F000B8F1000F1ED00020014690E79DF8E800E7
:1019000002F052FC89F8000078B1B54850F82A007E
:10191000CBF80000DDF8401502200870DDF8441512
:10192000E52008704FF00108C6E7B1684FF47A70FF
:101930008847BEE70AF1010ABAF1050FFFF452AF7A
:1019400002208DF8780000218DF8D9108DF8DA008A
:101950008DF8D800CA208DF8DB0003208DF8DC005C
:101960008DF8DD00FD208DF8DE0039914FF0000A82
:101970009B4850F82A0015900DF59D6112A81DF0A6
:10198000D3FD0D46044654EA05000CD040F24E202B
:10199000934B0090963393A20021CDE902459AA083
:1019A0001EF020F9F0E00027ADF8E070002036A925
:1019B000CDE9101040226846DDF83815FEF7E8FC46
:1019C0000DF59D600FC81DF0CBFF0D46044654EA8F
:1019D00005000BD040F25520814B009096338CA22D
:1019E0000021CDE9024588A01EF0FCF83AA832A9F2
:1019F000CDE9101040226846DDF83815FEF7C8FC26
:101A00000DF59D600FC81DF0F5FE04460D4654EA25
:101A100005000BD19DF8C900012807D19DF8CD0024
:101A2000032803D19DF8CE00FD2827D0B1681420EB
:101A300088477F1C052FB7DB40226846DDF8381544
:101A4000FEF7A6FC0DF59D600FC81DF08FFC044647
:101A50000D4654EA05000BD040F28E20604B0090FA
:101A6000963375A20021CDE9024567A01EF0BAF8B1
:101A7000B8F1000F77D000200146D0E69DF8E800CD
:101A800002F092FB89F8000020B199F800000428C8
:101A900005D069E0B1684FF47A708847C9E7022140
:101AA0008DF8781000208DF8D9008DF8DA108DF8B7
:101AB000D810CA218DF8DB10C3218DF8DC108DF809
:101AC000DD0001218DF8DE1039903AAF0DF1C80824
:101AD000002036A9CDE9101040226846DDF83815FF
:101AE000FEF756FC0DF59D600FC81DF039FF0D4641
:101AF000044654EA05000BD040F27220384B0090A7
:101B0000963356A20021CDE902453FA01EF06AF8A7
:101B100040F27520324B009096335BA203213AA02D
:101B20001EF060F8CDE9108740226846DDF83815D0
:101B3000FEF72EFC0DF59D600FC81DF05BFE044600
:101B40000D4654EA05000AD19DF8C900012806D1C6
:101B50009DF8CD0018B99DF8CE00012804D0B168D9
:101B600032208847B4E70FE01D4850F82A00CBF830
:101B70000000DDF8401502200870DDF84415CA2089
:101B800008704FF0010857E70AF1010ABAF1050F92
:101B9000FFF4EEAE01208DF8780000218DF8D91009
:101BA00002228DF8DA208DF8D8008DF8DD108DF83E
:101BB000DE1039904FF0000A094850F82A001590BD
:101BC0000DF59D6112A81DF0AFFC0D46044654EAC8
:101BD000050075D0024B40F2A320963301A266E0C7
:101BE00094A405085B25733A25642920446A694C4E
:101BF000696E6B65725F496E69742C2073746174D1
:101C00003A256C6C64000000616461707465720058
:101C10005B25733A25642920446A694C696E6B65BB
:101C2000725F53656E644D73672C20737461743AF0
:101C3000256C6C64000000005B25733A2564292044
:101C4000446A694C696E6B65725F4465496E69747C
:101C50002C20737461743A256C6C64005B25733AB4
:101C6000256429204C696E6B65722073656E642053
:101C70006D7367206661696C65642C206572726E95
:101C80006F3A20256C6C64005B25733A256429202B
:101C9000436865636B206169726372616674207664
:101CA000657273696F6E2E2E2E00000008E0002111
:101CB000CDE902450090AFF2B0001DF093FF93E034
:101CC0000027ADF8E07031A836A9CDE91010402208
:101CD0006846DDF83815FEF75BFB0DF59D600FC813
:101CE0001DF03EFE04460D4654EA05000CD0434B61
:101CF00040F2AB20AFF2E8020021CDE902450090AE
:101D0000AFF2FC001DF06EFF3AA832A9CDE9101029
:101D100040226846DDF83815FEF73AFB0DF59D6068
:101D20000FC81DF067FD04460D4654EA050009D1B1
:101D30009DF8C900012805D19DF8CD0010B99DF886
:101D4000CE0040B3B168142088477F1C052FB8DB54
:101D500040226846DDF83815FEF71AFB0DF59D6048
:101D60000FC81DF003FB0D46044654EA05000CD0D5
:101D7000224B40F2C120AFF240120021CDE90245D2
:101D80000090AFF27C101DF02DFFB8F1000F2BD0AA
:101D90000020014643E51FA93AA828F011FE0D4690
:101DA000044654EA05000ED040F2B320134B14A2AF
:101DB0000021CDE902450090AFF2B4101DF012FFF2
:101DC000204629462BE525A802F0D8F989F800001D
:101DD0000A48963850F82A00CBF80000DDF8401584
:101DE000012008708046B3E70AF1010ABAF1050F35
:101DF000FFF4E2AE4FF48070002110E52AA505083B
:101E00005B25733A256429205061727365207364E1
:101E10006B2076657273696F6E41636B20657272B9
:101E20006F722C2072657475726E436F6465203D0D
:101E300020256C6C640000002DE9F14FDEB04FF0FE
:101E40000008CDF864814FF4827118A8FEF7BBFA40
:101E5000142113A8FEF7B7FA00201290CDF82880BD
:101E6000CDF82C80CDF83080CDF83480CDF81880B6
:101E7000CDF81C80CDF82080CDF82480CDF81480DA
:101E8000CDF810800027DFF8C8B3CBF804808BF8BA
:101E900001808BF802805E9E4FF002095AA9002053
:101EA00000F0B2FC04460D4654EA05000ED098201E
:101EB0000090E84BE8A20021CDE90245F5A01DF015
:101EC00091FEEC2000215FB0BDE8F08F9DF8680125
:101ED00010B14FF0A80A41E09C200090DD4BEF4A82
:101EE0000021ECA01DF07EFEEC200021EBE7D94B99
:101EF000EB4A0221E7A0CDF800A01DF073FE7F1C85
:101F0000BFB2082F25D9AD200090D24BE54A002161
:101F1000E0A01DF067FEE1200021D4E79BF801005E
:101F200048B3FFF7DFFBB921CDE90010C94BDEA2B2
:101F30000221D8A01DF056FE9DF87011012951D044
:101F40009BF8010003284DD004284BD005281DD054
:101F500020E025F073FD816832208847BC4B04AA3D
:101F60005B1C5CA95DA8FFF7F7FB04460D4654EA2D
:101F70000500BCD1D2E7BC200090B64BD44A00216A
:101F8000C4A01DF02FFEFF2000219CE79DF810004B
:101F9000CA2827D0022928D08BF802809BF802009B
:101FA000002826D0FFF7C2FBCD21CDE90010A94BB8
:101FB000C8A20221B7A01DF015FE9DF870010228ED
:101FC00022D001282CD09DF87001FC21CDE9001011
:101FD000A04BCBA20021AFA01DF004FE4FF48070F7
:101FE000002170E78BF80290D8E701208BF80200FF
:101FF000D4E7D0200090974BCF4A0021A5A01DF038
:10200000F1FDFF2000215EE78DF860808DF89000E3
:102010008DF864805D981B908DF8688001204AE0FF
:102020008DF860808DF890008DF864805D981B902D
:102030008DF8688025F0E4FC026959A901209047D9
:1020400004460D4654EA05000CD0E7200090814B71
:10205000BAA20021CDE902458EA01DF0C3FDEC20FF
:10206000002130E79DF86401012801D0012022E021
:102070005BA9012000F0C8FB04460D4654EA0500A8
:102080000CD0EE200090734B73A20021CDE90245E5
:1020900080A01DF0A7FDEC20002114E701208DF8A1
:1020A00094008DF8C4908DF898804FF461212891A8
:1020B0008DF89C00022018A91091ADF844006448E6
:1020C000002210A9001D07F0EBFF0D46044654EA5C
:1020D00005000DD04FF4827000905E4BA4A2002149
:1020E000CDE902456BA01DF07DFD20462946EAE6BC
:1020F000B6F5E13F17D0B6F5613F14D0B6F5E12F44
:1021000011D0B6F5612F0ED0A64886420BD040F212
:102110000D1000904F4BA44A00215EA01DF062FDFF
:10212000E3200021CFE69BF80100FFF711F930B161
:102130005D98864203D09BF8021002293ED05D983C
:1021400040F22D11CDE90010424B98A2022151A07E
:102150001DF048FD01268DF816609BF801008DF8F2
:1021600014009BF802008DF815008DF8176005A982
:10217000DBF8040024F0F6FB04460D4654EA0500A3
:1021800063D04FF49C700090324B93A20021CDE9B4
:10219000024540A01DF026FD9BF80100032855D004
:1021A0004FF49F7000902B4B8BA20021CDE902458C
:1021B00038A01DF017FD2046294684E6CDE901062A
:1021C0004FF48B710091234B90A2022131A01DF09E
:1021D00009FD9BF80100022802D0032814D026E054
:1021E000304600F02DFB04460D4654EA05001ED093
:1021F0004FF48E700090174B91A20021CDE902455B
:1022000024A01DF0EFFC12E0304600F07FFB0446F6
:102210000D4654EA05000AD040F2211000900D4B03
:1022200087A20021CDE902451AA01DF0DBFCDBF8F6
:10223000040007F0EDFB0D46044654EA05003FF4A8
:102240002DAE40F22710034B12E128E11CE1000003
:1022500054360020FCA405085B25733A2564292028
:10226000446A694163636573734164617074657244
:102270005F497355617274436F6E6E6563742C2091
:1022800072657475726E436F6465203D20256C6CB9
:1022900064000000616461707465720070B40608C7
:1022A0009CB506081CB606085B25733A25642920F0
:1022B0004964656E746966792061697263726166EA
:1022C000742073657269657320697320257300003B
:1022D00028B706085B25733A256429204964656E92
:1022E00074696679206D6F756E7420706F73697490
:1022F000696F6E2074797065206973202573000002
:102300005B25733A256429204E6F742073757070B5
:102310006F72742070726F746F636F6C2074797059
:1023200065206F6E2055415254302C2074797065B1
:10233000203D202564000000C4B606085B25733AE2
:102340002564292047657420756172742073746157
:10235000747573206572726F722C20726574757259
:102360006E436F6465203D20256C6C6400000000A6
:102370005B25733A25642920446A69436F6D6D615A
:102380006E645F496E6974206572726F722C207280
:10239000657475726E436F6465203D20256C6C64B6
:1023A0000000000040420F00C0B306085B25733AEE
:1023B000256429204964656E746974792075617299
:1023C00074302062617564726174652069732025C0
:1023D00064206270730000005B25733A2564292035
:1023E0005061796C6F6164206E65676F74696174A8
:1023F00065206572726F722C2072657475726E43FF
:102400006F6465203D20256C6C6400005B25733A89
:10241000256429204E6F77206175746F2072656383
:102420006F6E66696775726520626175647261744A
:10243000652066726F6D20256420746F202564000E
:102440005B25733A256429205365742062617564A5
:102450002072617465206572726F722C20726574CF
:1024600075726E436F6465203D20256C6C640000BE
:10247000ADA20021CDE902450090AFF2E8101DF0B9
:10248000B1FB204629461EE54FF49D70B24BB34A7E
:1024900000210090AFF204201DF0A4FB8BE623F096
:1024A0003DFB0D46044654EA05000ED04FF4A370E0
:1024B000A94BABA20021CDE902450090AFF22C2040
:1024C0001DF090FB20462946FDE4DBF8040007F0F0
:1024D0009FFA04460D4654EA05000ED040F24D1016
:1024E0009D4BAAA20021CDE902450090AFF25C20ED
:1024F0001DF078FB20462946E5E49DF8700102288E
:1025000011D001286DD0944B40F29711AFF21022F8
:10251000CDE900100021AFF284201DF063FB4FF4E1
:1025200080700021CFE425F09BFA8DF860808DF853
:1025300090908DF864805D991B918DF86880B0B1A2
:102540000AA824F087F90D46044654EA050010D085
:1025500040F25F10804B9AA20021CDE90245009025
:10256000AFF2D0201DF03EFB20462946ABE401200F
:1025700087E006A824F0E8F804460D4654EA050072
:102580000ED040F26510744B8DA20021CDE90245BA
:102590000090AFF200301DF025FB2046294692E462
:1025A0008DF894609DF870018DF8C4008DF89890B6
:1025B0000AA92CA8FDF752FF06A927A8FDF74EFF90
:1025C00045F6DC1030902B908DF84F908DF84C80B4
:1025D00027208DF84D008DF84E60012012900220CA
:1025E0004FE08DF860808DF890008DF864805D98E4
:1025F0001B908DF8688025F003FA026959A9012023
:1026000090470D46044654EA05000FD0524B4FF454
:10261000C170AFF2D8220021CDE902450090AFF29F
:102620008C301DF0DFFAEC2000214CE49DF86401B1
:10263000012801D0012024E05BA9012000F0E4F88A
:102640000D46044654EA05000FD0434B40F2891072
:10265000AFF2FC320021CDE902450090AFF2CC3060
:102660001DF0C0FAEC2000212DE48DF894608DF867
:10267000C4908DF898804FF4612028908DF89C606C
:10268000022018A91091ADF844009BF8010003281E
:1026900026D0042824D05946052802D1887802285B
:1026A0001ED013A80E901298ADF83C000EAA10A9E7
:1026B000514807F0F5FC0D46044654EA050014D0D5
:1026C000254B40F2AB10AFF258320021CDE9024564
:1026D0000090AFF240401DF085FA2046294605E4FF
:1026E000CDF83880ADF83C80E0E705A9DBF80400C0
:1026F00024F038F904460D4654EA05000FD0164B75
:102700004FF4D970AFF230320021CDE9024500908C
:10271000AFF280401DF066FA2046294635E48BF87A
:1027200000600020014630E45B25733A25642920CF
:10273000436F6D6D616E64206465696E69742065B8
:1027400072726F722C2072657475726E436F64655D
:10275000203D20256C6C6400FCA4050810B306081D
:102760005B25733A25642920504E206465696E69A3
:1027700074206572726F722C2072657475726E436C
:102780006F6465203D20256C6C6400005B25733A06
:1027900025642920446A69436F6D6D616E645F44EE
:1027A00065496E6974206572726F722C207265744F
:1027B00075726E436F6465203D20256C6C6400006B
:1027C0005B25733A256429204765742072656D6F17
:1027D000746520697020616464726573732065722A
:1027E000726F722C2072657475726E436F6465200F
:1027F0003D20256C6C6400005836002001480078AC
:10280000704700005436002038B505460C4625F0C8
:10281000F7F803686A464FF4E1312846984750EAD2
:10282000010202D00022227038BD25F0E9F841688B
:1028300000988847012020700020014638BD000024
:1028400030B58BB000240A94049405940694079440
:102850001D490891099001258DF810500A208DF826
:10286000130003208DF81400FEF752FF07F0C0FBA1
:10287000ADF818008DF8114002208DF812008DF887
:10288000155042208DF8160008200790FEF740FFF3
:1028900008AA04A908F0D8F804460D4654EA050031
:1028A0000ED040F2F3200090084B09A20021CDE9A0
:1028B000024514A01DF096F9204629460BB030BD04
:1028C00000200146FAE70000E38F4C8E5EA5050864
:1028D0005B25733A25642920577269746520666305
:1028E00020706172616D2073656E642073796E6310
:1028F000206572726F723A30782530386C6C582EC1
:1029000000000000616461707465720030B593B0BE
:10291000054600240F941094119412940B940C9477
:102920000D940E94142106A8FDF74DFD0594CDF8E5
:1029300019508DF8184002258DF83C50CA208DF8AA
:102940003F0028208DF84000FEF7E2FE07F050FB24
:10295000ADF844008DF83D408DF83E503C208DF898
:10296000410014208DF8420011201290FEF7D0FE95
:1029700001214FF47A7205ABCDE90031CDE9022196
:102980000BAB06AA0FA908F02FFD04460D4654EA2A
:1029900005000ED040F2153000900F4B0FA2002121
:1029A000CDE9024518A01DF01DF92046294613B0B7
:1029B00030BD9DF8140060B140F21A31CDE900102D
:1029C000054B13A2002110A01DF00CF9FF200021DF
:1029D000EDE700200146EAE77BA505085B25733A91
:1029E0002564292053657420636F6D6D20706172BA
:1029F000616D2073796E63206572726F723A307800
:102A00002530386C6C582E006164617074657200FA
:102A10005B25733A2564292053657420636F6D6DBF
:102A200020706172616D2061636B20636F6465204B
:102A30006572726F723A30782530386C6C582E009F
:102A400030B58DB00546002409940A940B940C947B
:102A500003A800F079FA08430BD04E200090194BE0
:102A600019A2022124A01DF0BDF8E32000210DB021
:102A700030BD01208DF824000A208DF827009DF834
:102A800021008DF82800FEF743FE07F0B1FAADF8FB
:102A90002C008DF8254002208DF826008DF8294065
:102AA000FC208DF82A000E200C90FEF731FE4FF42A
:102AB0007A71CDE90051124B124A029409A908F02B
:102AC000A5F9D4E7D4A505085B25733A2564292028
:102AD00043616E2774206765742061697263726157
:102AE000667420696E666F20706172616D20636F1D
:102AF0006E66696700000000696E666F7200000014
:102B00004530010860360020F0B58DB0074600263C
:102B100009960A960B960C9603A800F015FA04463F
:102B20000D462C430BD08D200090244B24A2022173
:102B30002FA01DF057F8E32000210DB0F0BD0224B6
:102B40008DF82440FEF7E4FD07F052FAADF82C00B2
:102B5000CA208DF827009DF821008DF828008DF8F7
:102B600025608DF826408DF829608DF82A600C9636
:102B7000FEF7CEFD4FF47A71CDE900711E4B0022B5
:102B8000029609A908F042F904460D4654EA0500E8
:102B900007D09F200090094B18A2002114A01DF01F
:102BA00021F83878A221CDE90010044B1FA203219F
:102BB0000FA01DF017F820462946BEE74BA60508D2
:102BC0005B25733A2564292043616E27742067656D
:102BD0007420616972637261667420696E666F2029
:102BE000706172616D20636F6E666967000000003E
:102BF000696E666F72000000513201085B25733AFE
:102C000025642920636865636B20636F6E6E65635E
:102C10007420737461747573206173796E632073AB
:102C2000656E64206572726F720000005B25733AF6
:102C300025642920636865636B20636F6E6E65632E
:102C400074207374617475733A256400F0B58DB0A7
:102C50000746002609960A960B960C9603A800F0E4
:102C600073F904460D462C430BD06B200090244B87
:102C700024A202212FA01CF0B5FFE32000210DB0FB
:102C8000F0BD02248DF82440FEF742FD07F0B0F9B4
:102C9000ADF82C0013208DF827009DF821008DF849
:102CA00028008DF825608DF826408DF829608DF874
:102CB0002A600C96FEF72CFD4FF47A71CDE9007175
:102CC0001E4B0022029609A908F0A0F804460D4602
:102CD00054EA050007D07D200090094B18A200217E
:102CE00014A01CF07FFF38788021CDE90010044B40
:102CF0001FA203210FA01CF075FF20462946BEE746
:102D000017A605085B25733A2564292043616E27C1
:102D100074206765742061697263726166742069EA
:102D20006E666F20706172616D20636F6E66696799
:102D300000000000696E666F7200000051320108E9
:102D40005B25733A25642920636865636B20636F94
:102D50006E6E65637420737461747573206173792A
:102D60006E632073656E64206572726F720000007E
:102D70005B25733A25642920636865636B20636F64
:102D80006E6E656374207374617475733A256400A4
:102D90008B899BB207F052BF70B592B005460E46C4
:102DA00020210AA8FDF70FFB1F4806ACD0E910232D
:102DB000C16B806C0EC4099000248DF828409DF8EA
:102DC000290020F0F000303020F00F008DF82900AD
:102DD000102206A90DF12A00FDF7DAFA0594032066
:102DE0008DF841008DF84040BDF81400ADF83E006C
:102DF0001E230AAA3146284607F020FF04460D4646
:102E000054EA05000BD04FF4B170074B00900B3320
:102E100006A20021CDE902450EA01CF0E3FE12B08F
:102E20002046294670BD0000D4A705085B25733AEB
:102E3000256429206765742076657273696F6E203A
:102E400061636B206572726F723A30782530386C2E
:102E50006C580000696E666F7200000030B599B062
:102E600011A800F071F804460D462C430BD0AF209A
:102E70000090254B25A2022130A01CF0B3FEE320D8
:102E8000002119B030BD40221F49373101A8FDF79C
:102E90007FFA9DF847008DF805008DF815008DF834
:102EA00025008DF8350011A800F04EF80D460446B7
:102EB00054EA05000AD0BF200090134B13A2022150
:102EC0001EA01CF08FFEE3200021DAE701A8179076
:102ED0000420ADF86000FEF71BFC17A907F028FBE3
:102EE0000D46044654EA05000AD0C9200090064B5E
:102EF000144A002111A01CF075FE20462946C0E7A7
:102F000020462946BDE700008DA605085B25733ADB
:102F10002564292043616E277420676574206169E8
:102F200072637261667420696E666F20706172618F
:102F30006D20636F6E66696700000000696E666FE2
:102F40007200000030B8060870B586B0044605A8C7
:102F5000FEF7C0FB50EA010220D104A8FEF7DEFB19
:102F600050EA01021AD100209DF81420154D9DF859
:102F7000103000EB400115F83160964210D105EB9E
:102F8000C101497899420BD100EB400005EBC0012B
:102F900018222046FDF7FCF90020014606B070BD5E
:102FA000401C0828E5D38C208DE80D00054B064A0F
:102FB000C033002105A01CF015FE4FF480700021E5
:102FC000ECE7000020A8050880B806087574696C55
:102FD0007300000038B50A4801690A48884704466A
:102FE0000D4654EA050008D040F2C2200090064B7E
:102FF00006A2002111A01CF0F5FD2046294638BD8F
:1030000018A3012014350020288305085B25733A96
:1030100025642920636865636B206169726372614E
:10302000667420636F6E6E656374696F6E2073746F
:1030300061747573206572726F720000696E666FDD
:10304000720000002DE9FE43164600242546002E9E
:1030500023D0364FA0463868401C002B29D0012BC6
:1030600055D0386040F23910CDE90003304B31A221
:1030700000213FA01CF0B6FD3868052808D940F2B1
:103080003D1000902A4B3CA2002139A01CF0AAFD63
:103090002046294603B0BDE8F0834FF48F700090BE
:1030A000234B40A2002132A01CF09CFDEC2000210B
:1030B000F0E7DFF87890D1F8021009F10409D9F8A7
:1030C0000220914213D1C7F8008040F22710CDE9C9
:1030D0000001174B43A2032125A01CF083FDD9F862
:1030E0000200401CC9F8020001203070C4E73860BB
:1030F00040F22D108DE807000D4B484A00211CA01E
:103100001CF070FD86F80080EC240025B4E73860E0
:103110004FF49A700090064B41A2002114A01CF0BD
:1031200061FD86F80080E1240025A5E75C360020DB
:10313000A9A705085B25733A2564292043686563C0
:103140006B20686561727462656174207374617468
:103150007573206173796E63206661696C656420A4
:103160003A2063625F747970652825642900000045
:10317000696E666F720000005B25733A2564292032
:10318000436865636B206C6F737420636F6E6E654C
:103190006374696F6E20776974682044726F6E651E
:1031A000210000005B25733A25642920636865636C
:1031B0006B20636F6E6E656374696F6E206F7574DC
:1031C00070757420666C616720707472206973205A
:1031D0006120696E76616C69642076616C75652E1C
:1031E000000000005B25733A25642920436865636D
:1031F0006B206865617274626561742073746174B8
:103200007573206173796E63207375636573732CB6
:1032100020736571203A202564000000ECB7060891
:103220005B25733A25642920436865636B206865D4
:103230006172746265617420737461747573206166
:1032400073796E632074696D656F7574000000009A
:10325000F8B5164600242546002E03D073B1012B85
:1032600018D024E04FF480700090124B12A200217D
:1032700021A01CF0B7FCEC200021F8BD40F20510A5
:1032800000900C4B1EA203211BA01CF0ABFC0120E4
:1032900030700CE040F209100090064B21A2012191
:1032A00015A01CF09FFC00203070E1240025204672
:1032B0002946F8BD7CA705085B25733A25642920BB
:1032C000636865636B20636F6E6E656374696F6EB0
:1032D000206F757470757420666C616720707472ED
:1032E000206973206120696E76616C696420766163
:1032F0006C75652E00000000696E666F720000003C
:103300005B25733A25642920636F6E6E65637420B4
:10331000737461747573206173796E632073756360
:10332000657373005B25733A25642920636F6E6EA5
:1033300065637420737461747573206173796E634F
:103340002074696D656F7574000000000021074AE4
:1033500012F83130834203D102EBC100406870475C
:10336000491C0429F4D302A07047000058810508C5
:10337000556E6B6E6F776E002DE9F04796B00024A6
:1033800012941394149415940E940F941094119411
:103390000D94242104A8FDF716F824F04FFB0646EF
:1033A00001200D9002218DF84810E5228DF84B2068
:1033B00065228DF84C208DF849408DF84A108DF823
:1033C0004D4051218DF84E10159004AF4FF0030879
:1033D0004FF0C8094FF0230AFEF79AF906F008FEED
:1033E000ADF85000FEF794F9CDE901A90EAB0DAA96
:1033F00012A9CDF80C80009707F0F6FF0D460446A1
:1034000054EA05000DD040F2B2200090154B164A48
:10341000002116A01CF0E6FBB1684FF4FA70884753
:10342000DAE79DF8100070B140F2AB21CDE9001051
:103430000C4B10A200210DA01CF0D4FBFF2000219A
:1034400016B0BDE8F0870DF1130040F2A721CDE9D9
:103450000010044B13A2022104A01CF0C3FB204661
:103460002946EDE70183050808990608696E666F2D
:10347000720000005B25733A25642920476574209B
:1034800073657269616C206E756D6265722061632F
:103490006B206572726F722C20737461743A256CA4
:1034A0006C6400005B25733A25642920476574200D
:1034B00073657269616C206E756D626572206F66EE
:1034C00020536B79706F7274205632206F722058BF
:1034D0002D506F7274206973202573000021074AF4
:1034E00012F83130834203D102EBC10040687047CB
:1034F000491C0A29F4D302A070470000E0800508A7
:10350000556E6B6E6F776E00F0B58DB00746002676
:1035100009960A960B960C960596069607960896B7
:10352000049602248DF82440FEF7F2F806F060FDC0
:10353000ADF82C002748C1788DF8271000798DF858
:1035400028008DF825608DF8264003248DF8294049
:10355000FD208DF82A000C96FEF7DAF8012204AB64
:10356000C821CDE90032CDE9021405AB002209A93A
:1035700007F03AFF04460D4654EA05000ED040F22B
:103580001F200090144B15A20021CDE902451EA07A
:103590001CF028FB204629460DB0F0BD9DF8100018
:1035A0003C2811D006DC2C280ED02D280CD02E283B
:1035B00006D109E0432809D04D2807D0592803D067
:1035C0003E7000200146E7E73870FAE7384600F021
:1035D0001FF8F6E718A30120B78205085B25733AA8
:1035E000256429206765742061697263726166745D
:1035F0002074797065206572726F723A2030782578
:1036000030386C6C582E0000696E666F72000000D6
:103610002DE9F04198B006460027149715971697A4
:1036200017971097119712971397202108A8FCF766
:10363000CAFE02258DF850503F48C0788DF85300DF
:1036400001248DF85440FEF763F806F0D1FCADF884
:1036500058008DF851708DF852508DF855708DF8D6
:1036600056401797FEF754F80321C8221E230DF188
:103670002008CDE90221CDE9008310AB002214A976
:1036800007F0B2FE04460D4654EA05002CD040F285
:10369000F5100090294B2AA20021CDE9024538A05F
:1036A0001CF0A0FA2046294615F0B6FBB8B9224610
:1036B0002B4602A815F0F6FA02A805AB07C807C307
:1036C000DDE9052107984FF4FB73CDE90032CDE920
:1036D00002101A4B2CA2002129A01CF083FA2046CC
:1036E000294618B0BDE8F0812BA108F10200FCF7D3
:1036F0009AFEA8B129A108F10200FCF794FE90B14E
:1037000028A108F10200FCF78EFE78B126A108F18D
:103710000200FCF788FE60B1377000200146E0E748
:1037200043203070F9E744203070F6E74D203070C8
:10373000F3E74F203070F0E718A3012088820508D6
:103740005B25733A2564292047657420616972639B
:10375000726166742063616D657261207665727353
:10376000696F6E206661696C65642C206572726E8B
:103770006F3A2030782530386C6C582E00000000ED
:10378000696E666F720000005B25733A256429201C
:1037900025732573257300004D3330004D333054AD
:1037A000000000004D3345004D3354000021074A0E
:1037B00012F83130834203D102EBC10040687047F8
:1037C000491C0529F4D302A0704700007881050840
:1037D000556E6B6E6F776E000021074A12F831301C
:1037E000834203D102EBC10040687047491C0329A2
:1037F000F4D302A070470000A0810508556E6B6EDF
:103800006F776E002DE9F04188B0074624F016F975
:10381000804640F241112C4808F040FFBFB12B4ECA
:10382000D8F81410F068884704460D4654EA05009D
:103830002DD040F24B100090234B25A200212BA04D
:103840001CF0D0F92046294608B0BDE8F081E320FD
:10385000002115F0E1FAB8B9E322002302A815F01F
:1038600021FA02A805AB07C807C3DDE9052040F22D
:1038700045130799CDE90032CDE90201124B1DA293
:1038800000211AA01CF0AEF9E3200021DCE7B6F815
:10389000030038807079B870D8F81810F06888473D
:1038A0000D46044654EA05000BD040F25310009038
:1038B000054B14A200210DA01CF094F920462946C6
:1038C000C2E700200146BFE7088205081435002042
:1038D0005B25733A256429204C6F636B206D7574EA
:1038E0006578206572726F722E000000696E666FD7
:1038F000720000005B25733A256429202573257327
:10390000257300005B25733A25642920556E6C6F82
:10391000636B206D75746578206572726F722E000E
:103920002DE9F04188B0074624F088F8064640F2B9
:103930005F112C4808F0B2FEC7B1DFF8AC807169A6
:10394000D8F8100088470D46044654EA05002DD0EB
:1039500040F269100090234B24A200212AA01CF001
:1039600041F92046294608B0BDE8F081E320002156
:1039700015F052FAB8B9E322002302A815F092F923
:1039800002A805AB07C807C3DDE90621059840F288
:103990006313CDE90030CDE90221124B1CA20021B6
:1039A00019A01CF01FF9E3200021DCE7B8F80100A2
:1039B0003880B169D8F8100088470D46044654EAAB
:1039C00005000BD040F271100090064B14A20021AC
:1039D0000DA01CF007F920462946C4E70020014647
:1039E000C1E7000024820508143500205B25733AE6
:1039F000256429204C6F636B206D75746578206594
:103A000072726F722E000000696E666F72000000A5
:103A10005B25733A256429202573257325730000DF
:103A20005B25733A25642920556E6C6F636B206D9E
:103A300075746578206572726F722E000021074AD6
:103A400012F83130834203D102EBC1004068704765
:103A5000491C0529F4D302A07047000030810508F5
:103A6000556E6B6E6F776E000149896808470000DC
:103A700018A301202DE9F0478CB023F0DFFF0646A4
:103A80009348FFF761FA04460D462C430CD0AE2054
:103A90000090904B90A2002197A01CF0A3F8E32087
:103AA00000210CB0BDE8F087DFF8248298F802000E
:103AB00050B1B3200090874B914A00218EA01CF09A
:103AC00091F8E0200021ECE7824805AC183090E83E
:103AD0000E00C0680EC4089098F803008DF8150019
:103AE000F1688848884704460D4654EA05000AD024
:103AF000C0200090774B84A200217FA01CF072F8B8
:103B000020462946CDE77F48F168001D88470446D6
:103B10000D4654EA05000AD0C62000906D4B7AA2EB
:103B2000002175A01CF05EF820462946B9E705A8DB
:103B30000A900120ADF82C00FDF7EAFD0AA906F075
:103B4000F7FC0D46044654EA05000AD0D020009048
:103B5000604B74A2002168A01CF044F8204629465E
:103B60009FE7DFF8A0917169A9F10C09D9F80C0061
:103B7000884723F045FF026909A9012090470D46B7
:103B8000044654EA05000CD0D8200090514B75A291
:103B90000021CDE9024580A01CF024F8EC20002192
:103BA0007FE7584F98F80000093F022806D198F89F
:103BB0000100022802D19DF8240088B1514809383B
:103BC000FFF7A2FC0D46044654EA05000AD0E320A4
:103BD0000090404B72A2002147A01CF003F86FE058
:103BE0003C203870781CFFF73FFF0D46044654EA2E
:103BF000050008D0EA200090364B71A200213EA0BB
:103C00001BF0F0FF5CE04FF0F10A10E0D8F80C1068
:103C1000801C884704460D4654EA050007D02D4B0A
:103C2000704A002134A0CDF800A01BF0DBFFB9786A
:103C300038460029EAD0B87804280FD0FFF79CFB5B
:103C400004460D4654EA050008D0FA200090214BA6
:103C500065A2002128A01BF0C5FF31E0FFF7FEF8A8
:103C60000D46044654EA050009D04FF481700090D7
:103C7000184B68A2002120A01BF0B4FF20E01448DC
:103C80006FA1183881607349C1600021016107F09C
:103C900009FE0F4918392EF09BFC0D46044654EAE4
:103CA00005000BD04FF4867000900A4B6AA20021E9
:103CB000CDE9024510A01BF095FF01E00024254648
:103CC000B169D9F80C00884720462946E9E600008A
:103CD00018A30120B88105085B25733A25642920C3
:103CE00043616E27742067657420706172616D2076
:103CF000636F6E6669670000696E666F7200000030
:103D0000549B0608203500205B25733A2564292042
:103D1000437265617465206D757465782065727293
:103D20006F722E005B25733A2564292052656769FE
:103D30007374657220616972637261667420696E62
:103D4000666F726D6174696F6E20636F6D6D616E09
:103D5000642068616E646C6572206572726F722E89
:103D6000000000005B25733A256429204765742014
:103D70007561727420737461747573206572726FEB
:103D8000722C2072657475726E436F6465203D20DD
:103D9000256C6C64000000006164617074657200E1
:103DA0005B25733A25642920476574206169726335
:103DB000726166742074797065206572726F72002A
:103DC0005B25733A256429204765742073646B2052
:103DD00061646170746572207479706520657272B7
:103DE0006F720000A09906085B25733A25642920AC
:103DF0004765742073646B20616461707465722020
:103E000073657269616C206E756D62657220657292
:103E1000726F72005B25733A2564292052656769C9
:103E200073746572206865617274206265617420C4
:103E300063616C6C6261636B206572726F7200000B
:103E40006169726372616674576F726B4E6F6465FD
:103E500000000000054101085B25733A2564292014
:103E600061646420616972637261667420776F7245
:103E70006B206E6F6465206572726F723A307825C0
:103E800030386C6C580000002DE9F04F85B08B463F
:103E9000164623F0D3FD8146002004900027307899
:103EA000FFF784FC04467078FFF796FC00B94FA03A
:103EB00004B94EA440F24B21CDE9001402904C4BC2
:103EC0004CA202215BA01BF08DFEDFF870A1D9F897
:103ED0001410DAF8100088470D4604464FF0FF082A
:103EE00054EA05000BD040F251200090404B54A200
:103EF000002150A01BF076FECDF8108056E0002087
:103F00004E4C564A3178641C12F810308B4205D161
:103F1000012702EB40004078207002E0401C04289A
:103F2000F2D3E32577B1002300204C4A7178121FA9
:103F300012F810608E4213D1012302EB400040784A
:103F4000607010E040F25F20CDE90001284B44A2F0
:103F5000002138A01BF046FE84F80080049510E094
:103F6000401C0228E4D363B940F26F20CDE9000180
:103F70001F4B45A200212FA01BF034FE84F80180C6
:103F80000495D9F81810DAF81000884704460D4651
:103F900054EA05000AD040F279200090144B44A264
:103FA000002124A01BF01EFECDF81080FDF7B0FB11
:103FB000012304AA594606F041FE0D46044654EA80
:103FC00005000FD040F282200090094B3FA2002153
:103FD000CDE9024517A01BF005FE2046294605B095
:103FE000BDE8F08F00200146F9E700000000000066
:103FF000D78205085B25733A256429205365742010
:104000006D6F62696C652061707020696E666F2CDF
:10401000206C616E67756167652069732025732C5C
:104020002073637265656E207479706520697320F2
:1040300025730000696E666F720000001435002061
:104040005B25733A256429206C6F636B206D757452
:104050006578206572726F722E000000D8800508A6
:104060005B25733A25642920617070206C616E674E
:104070007561676520697320696E76616C69643A61
:104080002025642E000000005B25733A256429205A
:104090006170702073637265656E2074797065203D
:1040A000697320696E76616C69643A2025642E001C
:1040B0005B25733A25642920756E6C6F636B206DE8
:1040C00075746578206572726F722E005B25733A85
:1040D00025642920446A69436F6D6D616E645F5386
:1040E000656E6441636B44617461206572726F72C6
:1040F000202C73746174203D2030782530386C6C2E
:104100005800000008B507F0C1FB0C4B99684A1C29
:104110009A60B1FBF0F200FB121000280CD1FEF700
:1041200059FF084308D040F2D2200090044B05A26A
:10413000002110A01BF056FD08BD00001435002022
:10414000588305085B25733A2564292063686563F5
:104150006B20636F6E6E6563742073746174757326
:10416000206173796E632073656E64206572726F6F
:1041700072000000696E666F7200000010B50446A0
:1041800008492046FCF74FF938B106492046891DF9
:10419000FCF749F918B1002010BD012010BD022024
:1041A00010BD000005D305082C280DD02D280BD0FC
:1041B0002E2809D03C2809D0432809D04D2809D001
:1041C000592809D00020704701207047022070470D
:1041D0000320704704207047052070472DE9FF41F8
:1041E000074623F02BFC0646DFF874807169D8F887
:1041F0000400884704460D4654EA05000ED0A92065
:104200000090184B18A20021CDE902451FA01BF019
:10421000E9FC2046294604B0BDE8F08198F800008A
:10422000B8B101203870B169D8F8040088470D464C
:10423000044654EA05000FD0B5200090094B15A2A2
:104240000021CDE9024511A01BF0CCFC20462946F7
:10425000E1E700203870E6E700200146DBE70000D8
:1042600028350020708405085B25733A25642920D1
:104270006C6F636B206D75746578206572726F72F8
:104280003A2030782530386C6C582E00636F726598
:10429000000000005B25733A25642920756E6C6F61
:1042A000636B206D75746578206572726F723A2049
:1042B00030782530386C6C582E00000070B588B00E
:1042C00004460D460022069207928DF81820012020
:1042D0008DF8190020499DF81A200B7863F300022D
:1042E000590861F34102990861F38202D90861F328
:1042F000C3028DF81A20C2F3C003C2F38006C2F3D2
:10430000400102F00102CDE90221CDE9046340F24F
:104310002511CDE90010114B114A032111A01BF00A
:1043200061FC062306AA2946204606F087FC0446BF
:104330000D4654EA05000AD040F22F100090074BBA
:104340000AA20021CDE9024506A01BF04BFC08B0F3
:104350002046294670BD0000303500201485050830
:10436000309D0608636F7265000000005B25733A9C
:104370002564292067657420444A492070726F645F
:1043800075637420696E666F726D6174696F6E20FB
:1043900061636B206572726F723A30782530386CC9
:1043A0006C5800002DE9F04786B00746884623F098
:1043B00045FB06464FF0000ACDF814A0DFF8A890A0
:1043C0007169D9F80400884704460D4654EA05008F
:1043D0000FD04FF480700090244B25A20021CDE92E
:1043E00002452CA01BF0FEFB2046294606B0BDE886
:1043F000F0878DF814A099F800109DF8150061F36E
:1044000000008DF81500B169D9F80400884704460A
:104410000D4654EA05000DD040F209100090134BF0
:104420001EA20021CDE902451AA01BF0DBFB2046AD
:104430002946DBE7022305AA4146384606F0FEFB83
:104440000D46044654EA05000AD04FF488700090E7
:10445000064B1CA20021CDE902450EA01BF0C2FBB9
:1044600020462946C2E7000028350020DD840508E3
:104470005B25733A256429206C6F636B206D75741E
:104480006578206572726F723A2030782530386C0A
:104490006C582E00636F7265000000005B25733A54
:1044A00025642920756E6C6F636B206D757465785B
:1044B000206572726F723A2030782530386C6C58F3
:1044C0002E0000005B25733A25642920676574205F
:1044D000444A492070726F6475637420696E666F18
:1044E000726D6174696F6E2061636B206572726FAB
:1044F000723A30782530386C6C58000030B58DB089
:1045000004460D46242104A8FBF75DFF00208DF82A
:1045100010002020ADF811001848827804A82AB1B4
:1045200020221749C01CFBF733FF0DE0202215A104
:10453000C01CFBF72DFF4FF4B67000901A4B1B4ABE
:1045400001211BA01BF04EFB232304AA2946204671
:1045500006F074FB0D46044654EA05000AD04FF4F9
:10456000BA700090104B14A20021CDE9024510A0B2
:104570001BF038FB0DB02046294630BD2835002001
:1045800030A30120313233343536373839303132C7
:1045900033343536373839303132333435363738CD
:1045A000393058580000000088850508BC9B060873
:1045B000636F7265000000005B25733A2564292053
:1045C0006765742073657269616C206E756D6265D4
:1045D000722061636B206572726F723A3078253099
:1045E000386C6C580000000070B592B006460D465D
:1045F00020210AA8FBF7E7FE334A06ACD2E90313F1
:10460000906852690BC40992E87840F23F11CDE9F5
:1046100000102D4B2DA2253B032138A01BF0E2FA00
:1046200000248DF828409DF8290020F0F002103277
:1046300022F00F008DF82900102206A90DF12A00A2
:10464000FBF7A6FE2F48407870B12E4A0C32107846
:104650008DF8410050788DF8400090788DF83F003B
:10466000D0788DF83E0014E0059403208DF84100C9
:1046700005208DF84000BDF81400ADF83E004FF461
:10468000A870114B0090253B1F4A01211BA01BF075
:10469000A9FA1E230AAA2946304606F0CFFA0D468B
:1046A000044654EA05000BD040F25710064B009028
:1046B000253B16A20021CDE9024510A01BF092FA7D
:1046C00012B02046294670BD708505085B25733AF7
:1046D00025642920476574207061796C6F616420BE
:1046E000637573746F6D2076657273696F6E206683
:1046F000726F6D203078253038580000636F726516
:1047000000000000283500204C9C06085B25733A09
:10471000256429206765742076657273696F6E2041
:1047200061636B206572726F723A30782530386C35
:104730006C58000070B59EB023F080F906462A48F8
:1047400007F038F804460D462C430BD05420009057
:10475000264B27A200212FA01BF044FAE3200021C2
:104760001EB070BD60222149203104A8FBF710FE65
:104770001D48C0788DF811008DF821008DF83100AA
:104780001948F1680C3888470D46044654EA05007C
:104790000CD066200090154B20A20021CDE90245E7
:1047A0001CA01BF01FFA20462946D9E704A81C903C
:1047B0000620ADF87400FCF7ABFF1CA905F0B8FEAD
:1047C00004460D4654EA05000AD06F200090074BBE
:1047D0001CA200210FA01BF005FAEC200021BFE76E
:1047E00000200146BCE70000383500207083050832
:1047F0005B25733A2564292043616E277420676521
:104800007420636F726520636F6E666967207061E4
:1048100072616D00636F7265000000005B25733A82
:1048200025642920637265617465206D75746578EF
:10483000206572726F723A2030782530386C6C586F
:104840002E0000005B25733A2564292052656720FD
:1048500070726F6475637420696E666F726D6174D7
:10486000696F6E20636D642068616E646C65722090
:104870006572726F720000002DE9FF41804623F0DF
:10488000DDF807461D4E79697068884704460D4675
:1048900054EA05000ED0C3200090194B19A2002144
:1048A000CDE9024520A01BF09DF92046294604B021
:1048B000BDE8F081B8F1000F03D0B8F1010F03D0CB
:1048C00004E00020307001E001203070B9697068A8
:1048D00088470D46044654EA05000CD0CF200090CE
:1048E000074B13A20021CDE902450FA01BF07AF976
:1048F00020462946DBE700200146D8E7283500207E
:104900008D8405085B25733A256429206C6F636BE1
:10491000206D75746578206572726F723A203078F8
:104920002530386C6C582E00636F726500000000F3
:104930005B25733A25642920756E6C6F636B206D5F
:1049400075746578206572726F723A203078253000
:10495000386C6C582E00000002490A6860F30002AF
:104960000A6070473035002070B586B0044605A84F
:10497000FCF7B0FE50EA010222D104A8FCF7CEFEFB
:1049800050EA01021CD100209DF81420164D9DF81C
:10499000103000EB400115F82160964212D105EB72
:1049A0008101497899420DD100EB400005EB800070
:1049B000D0E900128068C4E90012A060002001461E
:1049C00006B070BD401C0828E3D373208DE80D00AD
:1049D000054B064A6033002105A01BF003F94FF494
:1049E00080700021ECE7000014D3050880B80608A9
:1049F0007574696C730000002DE9F041ADF50C7D14
:104A00000446202184A8FBF7DEFC4FF4807739466A
:104A100044A8FBF7D8FC394604A8FBF7D4FC44AA09
:104A2000790004F1500036F04FFF04F1200110220C
:104A30000D4604A8FBF7ACFC2846FBF7EDFC04A9E7
:104A4000084404F1300120220E46FBF7A1FC284661
:104A5000FBF7E2FC80463046FBF7DEFC404481B2C7
:104A600084AA04A831F068FC21A12046FBF7DBFCF6
:104A700090B13046FBF7D0FC202818D94320009095
:104A80001D4B1E4A00211EA01BF0ACF8E3200021A4
:104A90000DF50C7DBDE8F0813D200090164B1A4AC3
:104AA000002117A01BF09EF8E3200021F0E7202052
:104AB000009084AB3A4644A9144831F079F858B1D3
:104AC00053208DE861000C4B11A203210CA01BF0B8
:104AD00089F800200146DBE74C200090064B1C4A79
:104AE000002107A01BF07EF8E3200021D0E70000A2
:104AF000537065616B6572000BAB05085CB9060805
:104B00006175746800000000DCB80608FFA805089D
:104B10005B25733A256429204170706C6963617468
:104B2000696F6E20696E666F20766572696679209E
:104B30007375636365737366756C6C792C20494477
:104B40003A2025732C204B65793A2025730000000C
:104B500024BA0608F0B58BB004460E4617461D462B
:104B6000242102A8FBF72FFC22F068FF016B01A8AB
:104B7000884701984FF47A714143696028602E2C70
:104B800002D02F2C0DD018E002A9012000F02AF944
:104B900050EA010213D13A4602A93046FBF7F8FB6E
:104BA0000BE002A9022000F01DF950EA010206D133
:104BB0003A4602A93046FBF7EBFB002001460BB05A
:104BC000F0BD0000F8B505460E46174622F036FF48
:104BD00001467FB1A5F12E04174804EB440300F809
:104BE000235000EB830047604680322E05D9E02039
:104BF0000021F8BD00200146F8BD104D2878B8B955
:104C0000281D00900C6800234FF480620C490DA011
:104C1000A04708430AD04A200090104B10A2002160
:104C20001CA01AF0DFFFFF200021F8BD0120287032
:104C300000200146F8BD0000A4B001207436002019
:104C4000994C0108757365725F737562736372695D
:104C50007074696F6E5F7461736B0000D0AB050890
:104C60005B25733A2564292075736572206461742D
:104C70006120737562736372697074696F6E2074FA
:104C800061736B20637265617465206572726F7207
:104C90002E000000737562008CB024216846FBF77B
:104CA00092FB22F0CBFE80460BA8D8F83010884744
:104CB0000B984FF47A71B0FBF1F201FB12020A92E9
:104CC000B0FBF1F00990234F3226D8F808101420D9
:104CD0008847002505EB450107EB81046088421EEB
:104CE000312A33D817F821102E2902D02F2917D0B6
:104CF0002CE0B6FBF0F12089421C2281B0FBF1F2DE
:104D000001FB120010BB6946012000F06BF808435C
:104D10001CD16368D3B109AA21216846984715E0E0
:104D2000B6FBF0F12089421C2281B0FBF1F201FBBD
:104D3000120058B96946022000F054F8084305D122
:104D400063681BB109AA2121684698476D1C022D92
:104D5000C0DBBAE7A4B0012070B586B0044605A850
:104D6000FCF7B8FC50EA010220D104A8FCF7D6FCFD
:104D700050EA01021AD100209DF81420154D9DF82B
:104D8000103000EB400115F81160964210D105EB90
:104D90004101497899420BD100EB400005EB4000FE
:104DA000016821608088A0800020014606B070BDA7
:104DB000401C0828E5D369208DE80D00054B064A04
:104DC0003033002105A01AF00DFF4FF48070002150
:104DD000ECE700004BD4050880B806087574696CD0
:104DE000730000002DE9F04198B007468846002680
:104DF0001696179612961396149615960E960F966B
:104E0000109611960D96242104A8FBF7DCFA012FC9
:104E100001D0022F17D1B8F1000F14D016A8FFF758
:104E20009BFF04460D4654EA050017D0AF200090C2
:104E30003C4B3DA2022146A01AF0D4FEE320002103
:104E400018B0BDE8F081A9200090364B424A0021FD
:104E50003FA01AF0C7FED4200021F1E78DF834708E
:104E60008DF8356001208DF836008DF8370002246A
:104E70008DF848409DF85B008DF84B00012F36D02F
:104E80009DF85D008DF84C00FCF742FC05F0B0F891
:104E9000ADF850008DF849608DF84A400D208DF82E
:104EA0004D008DF84E4004201590FCF731FC032195
:104EB0004FF4FA72222304ACCDE90221CDE900437C
:104EC0000EAB0DAA12A906F08FFA04460D4654EA5D
:104ED00005000FD0C6200090124B20A20021CDE982
:104EE00002451BA01AF07EFE20462946A8E79DF841
:104EF0005C00C7E79DF8100058B1CD21CDE9001046
:104F0000084B25A2002112A01AF06CFEEC20002113
:104F100096E7212204A94046FBF73AFA0020014611
:104F20008EE7000087AB05085B25733A25642920CE
:104F300043616E27742067657420626174746572C2
:104F40007920706172616D20636F6E666967000021
:104F50006261747465727900FCBA06085B25733A65
:104F600025642920537562736372696265206261EA
:104F7000747465727920696E666F206661696C650C
:104F8000642C206572726F72203A202030782530B0
:104F9000386C6C582E0000005B25733A256429207C
:104FA00053756273637269626520626174746572BD
:104FB0007920696E666F206661696C65642C207269
:104FC000657475726E20636F6465203A20307825B1
:104FD0003032582E0000000070B58AB000200890D2
:104FE00009900690079022F029FD064606A8FFF7D3
:104FF000B3FE04460D462C430BD03C2000902A4BB8
:105000002AA2022133A01AF0EDFDE32000210AB00C
:1050100070BD9DF81A0050B141200090224B2FA284
:1050200000212CA01AF0DEFDE0200021EFE7F1685E
:10503000334888470D46044654EA05000AD0472005
:105040000090194B2FA2002122A01AF0CBFD204680
:105050002946DCE7144802ACD0E905230169C069A0
:105060000EC405909DF81B008DF8090002A8089059
:105070000120ADF82400FCF74BFB08A905F058FA15
:105080000D46044654EA05000AD055200090064B10
:1050900023A200210FA01AF0A5FD20462946B6E75D
:1050A00020462946B3E7000024AB05085B25733A88
:1050B0002564292043616E2774206765742062612E
:1050C000747465727920706172616D20636F6E66B1
:1050D0006967000062617474657279005B25733AD8
:1050E00025642920446F6E277420737570706F7269
:1050F000742074686973206D6F64756C65000000BE
:10510000703600205B25733A25642920437265615F
:105110007465206D75746578206572726F722E00EB
:105120005B25733A2564292052656769737465723B
:10513000206261747465727920696E666F20707583
:105140007368696E6720636F6D6D616E642068615E
:105150006E646C6572206572726F722E00000000C2
:105160002DE9F8438846914622F068FC06461A4F1E
:1051700071693868884704460D4654EA05000BD02B
:10518000DF200090154B16A200211CA01AF02AFD6A
:1051900020462946BDE8F883D8F80C001E2804D321
:1051A0001E2249461748FBF7F3F8B169386888476B
:1051B00004460D4654EA05000AD0E9200090074B4A
:1051C00011A200210DA01AF00DFD20462946E1E7AD
:1051D00020462946DEE7000070360020AEAB050809
:1051E0005B25733A256429204C6F636B206D7574C1
:1051F0006578206572726F722E00000062617474AF
:105200006572790085B001205B25733A25642920F9
:10521000556E6C6F636B206D757465782065727266
:105220006F722E0010B5002200290BD00124521CF1
:1052300004FA02F38342FAD9521E94400C60002013
:10524000014610BDE320002110BD00280BD0002135
:10525000016041608160C16000230361436181613D
:10526000002001467047E320002170472DE9F843F4
:105270000546884616461F4600200090002F27D07E
:105280006946284600F030F850EA01021ED16868ED
:105290000099441AA64200D23446A968421E114021
:1052A000461AA64200D9264628683246014440469E
:1052B000FBF76EF8A21B08EB06002968FBF768F8FD
:1052C000A8682044A8603C6000200146BDE8F8833F
:1052D000E3200021FAE710B5D1E905340A69C9696C
:1052E00080E81C00C16010BD002908D0D0E902325E
:1052F0004068D21A801A0860002001467047E320F7
:105300000021704770B504461046002C11D081B1C1
:105310000025A560E5602160211DFFF783FF50EAAD
:10532000010205D1002121616161A56100200146D2
:1053300070BDE320002170BD2DE9F8430446884686
:1053400016461F464FF00009CDF80090002F3DD0C3
:1053500069462046FFF7C8FF50EA010234D1009D9C
:10536000AE4200D23546D4E90420711B511840EBFF
:105370000900C4E904106168E0684A1E10400E1A72
:10538000AE4200D92E462168324608444146FAF71B
:10539000FFFFAA1B08EB06012068FAF7F9FFE06897
:1053A0002844E06069462046FFF79EFF50EA01026C
:1053B0000AD160680099401AA169814200D3084669
:1053C000A0613D6000200146BDE8F883E320002194
:1053D000FAE72DE9F8430446894617469846002621
:1053E0000096B8F1000F19D069462046FFF77CFF00
:1053F00050EA010214D1009DAF4200D23D46D4E9EB
:105400000420791B51187041C4E90410D4E901103B
:10541000491E0840A84205D92E4604E0E320002199
:10542000BDE8F883064621684F440844801BB91B39
:105430003246FAF7ADFFD4E900010844AA1B801AEE
:10544000791BFAF7A5FFA068401BA06069462046BB
:10545000FFF74AFF50EA0102E2D160680099401A62
:10546000A169814200D30846A061C8F8005000201D
:105470000146D5E72DE9F84304460F461546984600
:105480000026009669462046FFF72EFF50EA0102EB
:105490000BD1009885420AD9D4E90410491970410A
:1054A000C4E904104FF481700021BDE8F88343463D
:1054B0002A4639462046FFF73FFFF6E72DE9F84335
:1054C00004460F4615469846002600966946204633
:1054D000FFF70AFF50EA01020BD1009885420AD972
:1054E000D4E9041049197041C4E904104FF48170E3
:1054F0000021BDE8F88343462A4639462046FFF797
:1055000068FFF6E70048704750AC01202DE9F74FDF
:1055100084B0904622F092FA824600274FF00609A6
:10552000DAF83C102E2088470646300015D00020BF
:105530003060B08098F8000040F65521CDE90010A9
:105540004B4B4CA2032154A01AF04CFB98F80000DE
:105550004FF0FF0BFF2805D04AE0E220002107B002
:10556000BDE8F08F4D480090DAF8004000234FF47A
:1055700000624B494BA0A0470D46044654EA050083
:105580000DD040F65C200090394B4BA20021CDE9B4
:10559000024541A01AF026FB86F800B04AE0002040
:1055A000307047E011F0A8FE08EB87090168D9F8D0
:1055B000010000EBC00202EB8010042202EB80002D
:1055C0000144FFF79FFF426B0846904704460D4693
:1055D00054EA05000BD070780A2812D006EB800040
:1055E000D9F80110C0F802107078401C70707F1C50
:1055F00098F80000B842D5DC707828B186F800B081
:1056000004E086F801B0F2E700213170FF2803D0F2
:10561000062101EB800901E04FF02E0998F8000007
:105620004FF42861CDE90010114B2FA203211AA0DD
:105630001AF0D8FADDE904014B46324605F0FEFACD
:105640000D46044654EA05000AD040F68520009035
:10565000074B2DA20021CDE902450FA01AF0C2FA96
:10566000DAF84010304688472046294677E70000A0
:105670006D9B05085B25733A2564292064656C657C
:105680007465206D656469612066696C6520636F6F
:10569000756E743A2564000063616D00E835002082
:1056A000012E030864656C6574655F66696C655FEF
:1056B0007461736B000000005B25733A2564292038
:1056C0004372656174652064656C65746520666904
:1056D0006C65207461736B206572726F722C20652B
:1056E00072726E6F3A2564005B25733A2564292037
:1056F00064656C6574652070686F746F20636F7586
:105700006E743A25640000005B25733A25642920F5
:1057100064656C657465206D656469612066696C9B
:10572000652061636B206572726F723A3078253044
:10573000386C6C5800000000F0B585B006460F4686
:1057400000200490107840F2BC71CDE900101D4B90
:105750001DA2032122A01AF045FA224905208870D3
:105760002148806B804704460D4654EA05000AD064
:1057700040F2C1700090134B1CA20021CDE90245FC
:1057800017A01AF02FFA2046294613F07FFA04904A
:10579000012304AA3946304605F050FA04460D4666
:1057A00054EA05000AD040F2C9700090054B19A2D6
:1057B0000021CDE902450AA01AF014FA05B02046EE
:1057C0002946F0BDFF9805085B25733A256429201A
:1057D000466F726D61742053442025640000000000
:1057E00063616D00D8350020C8AB01205B25733A9A
:1057F00025642920666F726D617420736463617221
:1058000064206572726F723A2030782530386C6C83
:10581000582E00005B25733A25642920666F726D4F
:105820006174207364636172642061636B206572CC
:10583000726F723A30782530386C6C580000000076
:10584000F0B587B006460F4600200690059040F25E
:10585000637000901E4B1FA2032124A01AF0C2F90E
:105860002348816A05A8884704460D4654EA050086
:105870000AD040F267700090154B1EA20021CDE9BE
:1058800002451AA01AF0AEF92046294613F0FEF997
:105890008DF818009DF814008DF81900022306AA4F
:1058A0003946304605F0CAF904460D4654EA05006B
:1058B0000AD04FF4EE600090054B1CA20021CDE908
:1058C00002450AA01AF08EF907B020462946F0BD1D
:1058D000A09805085B25733A256429206765742024
:1058E000627572737420636F756E740063616D000E
:1058F000C8AB01205B25733A2564292067657420B5
:1059000073686F6F742070686F746F206275727344
:105910007420636F756E74206572726F723A2030F6
:10592000782530386C6C582E000000005B25733AE7
:105930002564292067657420627572737420636F13
:10594000756E742061636B206572726F723A307885
:105950002530386C6C5800002DE9F04786B0814640
:105960008A460020059022F069F8064640F6CD10E0
:105970000090364B36A2032140A01AF033F90020E4
:10598000014613F083F98DF814003D4F7169B86832
:10599000884704460D464FF0FF0854EA05000DD035
:1059A00040F6D3100090294B36A20021CDE90245E4
:1059B00032A01AF017F98DF814802CE030489DF8C9
:1059C00015101D30027862F3C301427862F3820140
:1059D000827862F30001C27862F34101027962F3D6
:1059E0000411407960F345118DF81510B169B8685C
:1059F00088470D46044654EA05000CD040F6E110F5
:105A00000090124B27A20021CDE902451BA01AF0FD
:105A1000E9F88DF81480022305AA5146484605F09E
:105A20000DF90D46044654EA05000AD040F6EA1086
:105A30000090064B23A20021CDE902450FA01AF0E9
:105A4000D1F806B020462946BDE8F087FC9A050843
:105A50005B25733A256429206765742063616D6551
:105A600072612066756E6374696F6E2073757070F5
:105A70006F727420737461746500000063616D005F
:105A8000D83500205B25733A256429206C6F636B41
:105A9000206D75746578206572726F723A20256486
:105AA0002E0000005B25733A25642920756E6C6F0B
:105AB000636B206D75746578206572726F723A2021
:105AC00025642E005B25733A2564292067657420C0
:105AD00063616D6572612066756E6374696F6E20B7
