:020000040801F1
:10000000FCFF0120E1300208C1350208C9350208B1
:10001000D1350208D9350208E13502080000000098
:1000200000000000000000000000000091890208AC
:10003000E935020800000000E18B0208498C020843
:100040003131020831310208313102083131020800
:1000500031310208313102083131020831310208F0
:1000600031310208313102083131020831310208E0
:1000700031310208313102083131020831310208D0
:1000800031310208313102083131020831310208C0
:10009000313102083131020831310208512F020892
:1000A00031310208F93502083131020831310208D4
:1000B0003131020831310208313102083131020890
:1000C0003131020831310208313102083131020880
:1000D000313102082D3F020801400208D5400208D4
:1000E0003131020831310208313102083131020860
:1000F0003131020831310208313102083131020850
:10010000313102083131020831310208313102083F
:1001100031310208A94102083131020831310208A7
:10012000313102083131020831310208313102081F
:10013000313102083131020831310208313102080F
:1001400031310208313102083131020831310208FF
:100150003131020831310208313102087D42020892
:1001600031310208313102083131020831310208DF
:10017000313102083131020831310208000000003B
:0801800031310208313102089F
:1001900010B5054C237833B9044B13B10448AFF3C1
:1001A00000800123237010BD981100200000000082
:1001B0007C6C060808B5034B1BB103490348AFF339
:1001C000008008BD000000009C1100207C6C060827
:1001D00010F8012B11F8013B012A28BF9A42F7D0F1
:1001E000D01A70470000000000000000000000006E
:1001F00001F0FF01102A2BDB10F0070F08D010F8D8
:10020000013B013A8B422DD010F0070F42B3F6D1DB
:10021000F0B441EA012141EA014122F007047FF0F4
:1002200000070023F0E80256083C85EA010586EA4B
:10023000010685FA47F5A3FA87F586FA47F6A5FA87
:1002400087F68EB9EED1F0BC01F0FF0102F0070293
:1002500032B110F8013B013A83EA010313B1F8D13E
:100260000020704701387047002D06BF354603381F
:10027000073815F0010F07D1013015F4807F02BF58
:10028000013015F4C03F0130F0BC0138704700BFA9
:10029000034613F8012B002AFBD1181A01387047C6
:1002A00081F0004102E000BF83F0004330B54FEA27
:1002B00041044FEA430594EA050F08BF90EA020F94
:1002C0001FBF54EA000C55EA020C7FEA645C7FEA27
:1002D000655C00F0E2804FEA5454D4EB5555B8BF4A
:1002E0006D420CDD2C4480EA020281EA030382EABB
:1002F000000083EA010180EA020281EA0303362D4D
:1003000088BF30BD11F0004F4FEA01314FF4801C1F
:100310004CEA113102D0404261EB410113F0004F31
:100320004FEA03334CEA133302D0524263EB4303E8
:1003300094EA050F00F0A780A4F10104D5F1200E86
:100340000DDB02FA0EFC22FA05F2801841F10001E1
:1003500003FA0EF2801843FA05F359410EE0A5F1B5
:1003600020050EF1200E012A03FA0EFC28BF4CF0E6
:10037000020C43FA05F3C01851EBE37101F000459C
:1003800007D54FF0000EDCF1000C7EEB00006EEBA9
:100390000101B1F5801F1BD3B1F5001F0CD3490833
:1003A0005FEA30004FEA3C0C04F101044FEA44528A
:1003B00012F5800F80F09A80BCF1004F08BF5FEA11
:1003C000500C50F1000041EB045141EA050130BDF1
:1003D0005FEA4C0C404141EB0101013C28BFB1F503
:1003E000801FE9D291F0000F04BF01460020B1FA4E
:1003F00081F308BF2033A3F10B03B3F120020CDA21
:100400000C3208DD02F1140CC2F10C0201FA0CF0FE
:1004100021FA02F10CE002F11402D8BFC2F1200C63
:1004200001FA02F120FA0CFCDCBF41EA0C01904019
:10043000E41AA2BF01EB0451294330BD6FEA040462
:100440001F3C1CDA0C340EDC04F11404C4F120024D
:1004500020FA04F001FA02F340EA030021FA04F35F
:1004600045EA030130BDC4F10C04C4F1200220FAB6
:1004700002F001FA04F340EA0300294630BD21FAF4
:1004800004F0294630BD94F0000F83F4801306BFBA
:1004900081F480110134013D4EE77FEA645C18BFAE
:1004A0007FEA655C29D094EA050F08BF90EA020F45
:1004B00005D054EA000C04BF1946104630BD91EA3D
:1004C000030F1EBF0021002030BD5FEA545C05D140
:1004D0004000494128BF41F0004130BD14F580047F
:1004E0003CBF01F5801130BD01F0004545F0FE41F3
:1004F00041F470014FF0000030BD7FEA645C1ABF28
:10050000194610467FEA655C1CBF0B46024650EA5E
:10051000013406BF52EA033591EA030F41F400218A
:1005200030BD00BF90F0000F04BF0021704730B510
:100530004FF4806404F132044FF000054FF00001E5
:1005400050E700BF90F0000F04BF0021704730B5A6
:100550004FF4806404F1320410F0004548BF40427B
:100560004FF000013EE700BF42004FEAE2014FEAD0
:1005700031014FEA02701FBF12F07F4393F07F4FAB
:1005800081F06051704732F07F4208BF704793F0AE
:100590007F4F04BF41F40021704730B54FF46074C1
:1005A00001F0004521F000411CE700BF50EA0102C4
:1005B00008BF704730B54FF000050AE050EA01026D
:1005C00008BF704730B511F0004502D5404261EBDD
:1005D00041014FF4806404F132045FEA915C3FF41E
:1005E000D8AE4FF003025FEADC0C18BF03325FEABB
:1005F000DC0C18BF033202EBDC02C2F1200300FA6C
:1006000003FC20FA02F001FA03FE40EA0E0021FA90
:1006100002F11444BDE600BF70B54FF0FF0C4CF47E
:10062000E06C1CEA11541DBF1CEA135594EA0C0F30
:1006300095EA0C0F00F0DEF82C4481EA030621EA6B
:100640004C5123EA4C5350EA013518BF52EA0335A6
:1006500041F4801143F4801338D0A0FB02CE4FF058
:100660000005E1FB02E506F00042E0FB03E54FF088
:100670000006E1FB03569CF0000F18BF4EF0010E80
:10068000A4F1FF04B6F5007F64F5407404D25FEA7C
:100690004E0E6D4146EB060642EAC62141EA55512F
:1006A0004FEAC52040EA5E504FEACE2EB4F1FD0C71
:1006B00088BFBCF5E06F1ED8BEF1004F08BF5FEAEF
:1006C000500E50F1000041EB045170BD06F00046A1
:1006D00046EA010140EA020081EA0301B4EB5C044E
:1006E000C2BFD4EB0C0541EA045170BD41F4801146
:1006F0004FF0000E013C00F3AB8014F1360FDEBF6B
:10070000002001F0004170BDC4F10004203C35DA46
:100710000C341BDC04F11404C4F1200500FA05F3C9
:1007200020FA04F001FA05F240EA020001F000426A
:1007300021F0004110EBD37021FA04F642EB0601E0
:100740005EEA430E08BF20EAD37070BDC4F10C040A
:10075000C4F1200500FA04F320FA05F001FA04F2CE
:1007600040EA020001F0004110EBD37041F10001BA
:100770005EEA430E08BF20EAD37070BDC4F12005C5
:1007800000FA05F24EEA020E20FA04F301FA05F22D
:1007900043EA020321FA04F001F0004121FA04F2D5
:1007A00020EA020000EBD3705EEA430E08BF20EAA5
:1007B000D37070BD94F0000F0FD101F000464000DF
:1007C00041EB010111F4801F08BF013CF7D041EA61
:1007D000060195F0000F18BF704703F00046520065
:1007E00043EB030313F4801F08BF013DF7D043EA36
:1007F0000603704794EA0C0F0CEA135518BF95EAEC
:100800000C0F0CD050EA410618BF52EA4306D1D172
:1008100081EA030101F000414FF0000070BD50EA91
:10082000410606BF1046194652EA430619D094EA1B
:100830000C0F02D150EA013613D195EA0C0F05D105
:1008400052EA03361CBF104619460AD181EA030159
:1008500001F0004141F0FE4141F470014FF0000011
:1008600070BD41F0FE4141F4780170BD70B54FF0AC
:10087000FF0C4CF4E06C1CEA11541DBF1CEA13552C
:1008800094EA0C0F95EA0C0F00F0A7F8A4EB05040E
:1008900081EA030E52EA03354FEA013100F0888005
:1008A0004FEA03334FF0805545EA131343EA1263CE
:1008B0004FEA022245EA111545EA10654FEA002683
:1008C0000EF000419D4208BF964244F1FD0404F53C
:1008D000407402D25B084FEA3202B61A65EB030598
:1008E0005B084FEA32024FF480104FF4002CB6EB55
:1008F000020E75EB030E22BFB61A754640EA0C00D5
:100900005B084FEA3202B6EB020E75EB030E22BF14
:10091000B61A754640EA5C005B084FEA3202B6EB55
:10092000020E75EB030E22BFB61A754640EA9C0014
:100930005B084FEA3202B6EB020E75EB030E22BFE4
:10094000B61A754640EADC0055EA060E18D04FEAA2
:10095000051545EA16754FEA06164FEAC30343EA42
:1009600052734FEAC2025FEA1C1CC0D111F4801F0F
:100970000BD141EA00014FF000004FF0004CB6E708
:1009800011F4801F04BF01430020B4F1FD0C88BFA7
:10099000BCF5E06F3FF6AFAEB5EB030C04BFB6EBB2
:1009A000020C5FEA500C50F1000041EB045170BDA5
:1009B0000EF0004E4EEA113114EB5C04C2BFD4EBD2
:1009C0000C0541EA045170BD41F480114FF0000E56
:1009D000013C90E645EA060E8DE60CEA135594EAD2
:1009E0000C0F08BF95EA0C0F3FF43BAF94EA0C0FD5
:1009F0000AD150EA01347FF434AF95EA0C0F7FF44A
:100A000025AF104619462CE795EA0C0F06D152EA9D
:100A100003353FF4FDAE1046194622E750EA410681
:100A200018BF52EA43067FF4C5AE50EA41047FF492
:100A30000DAF52EA43057FF4EBAE12E74FF0FF3CF7
:100A400006E000BF4FF0010C02E000BF4FF0010CC8
:100A50004DF804CD4FEA410C7FEA6C5C4FEA430C41
:100A600018BF7FEA6C5C1BD001B050EA410C0CBF90
:100A700052EA430C91EA030F02BF90EA020F0020F2
:100A8000704710F1000F91EA030F58BF994208BF59
:100A900090422CBFD8176FEAE37040F00100704716
:100AA0004FEA410C7FEA6C5C02D150EA013C07D16D
:100AB0004FEA430C7FEA6C5CD6D152EA033CD3D0B8
:100AC0005DF8040B704700BF8446104662468C46B2
:100AD0001946634600E000BF01B5FFF7B7FF0028E5
:100AE00048BF10F1000F01BD4DF808EDFFF7F4FF0E
:100AF0000CBF012000205DF808FB00BF4DF808ED99
:100B0000FFF7EAFF34BF012000205DF808FB00BFBB
:100B10004DF808EDFFF7E0FF94BF012000205DF8DD
:100B200008FB00BF4DF808EDFFF7CEFF94BF012092
:100B300000205DF808FB00BF4DF808EDFFF7C4FF8B
:100B400034BF012000205DF808FB00BF4FEA410CD4
:100B50007FEA6C5C02D150EA013C0AD14FEA430CB7
:100B60007FEA6C5C02D152EA033C02D14FF00000F4
:100B700070474FF0010070474FEA410212F5001232
:100B800015D211D56FF47873B3EB625212D94FEAD4
:100B9000C12343F0004343EA505311F0004F23FABE
:100BA00002F018BF404270474FF00000704750EA13
:100BB000013005D111F0004008BF6FF000407047D0
:100BC0004FF00000704700BF4A0011D212F500122A
:100BD00011D20DD56FF47873B3EB62520ED44FEA95
:100BE000C12343F0004343EA505323FA02F0704715
:100BF0004FF00000704750EA013002D14FF0FF3053
:100C000070474FF0000070474FEA4102B2F1E043F5
:100C100024BFB3F5001CDCF1FE5C0DD901F0004CE3
:100C20004FEAC0024CEA5070B2F1004F40EB830033
:100C300008BF20F00100704711F0804F21D113F15F
:100C40003872BCBF01F00040704741F480114FEA98
:100C50005252C2F11802C2F1200C10FA0CF320FA21
:100C600002F018BF40F001004FEAC1234FEAD3233E
:100C700003FA0CFC40EA0C0023FA02F34FEA4303A8
:100C8000CCE77FEA625307D150EA01331EBF4FF031
:100C9000FE4040F44000704701F0004040F0FE404C
:100CA00040F40000704700BF7BB972B90029BEBF95
:100CB00000204FF0004106E008BF00281CBF6FF085
:100CC00000414FF0FF3000F0EBB9ADF1080C6DE9D9
:100CD00004CE002909DB002B1ADB00F083F8DDF8D5
:100CE00004E0DDE9022304B07047404261EB4101BA
:100CF000002B1BDB00F076F8DDF804E0DDE90223D1
:100D000004B0404261EB4101524263EB4303704740
:100D1000524263EB430300F065F8DDF804E0DDE9DF
:100D2000022304B0404261EB41017047524263EB41
:100D3000430300F057F8DDF804E0DDE9022304B0D6
:100D4000524263EB4303704753B94AB9002908BFC5
:100D500000281CBF4FF0FF314FF0FF3000F0A0B96A
:100D6000ADF1080C6DE904CE00F03CF8DDF804E0CC
:100D7000DDE9022304B0704738B5002200230446A1
:100D80000D46FFF7BBFE28B920462946BDE838408E
:100D900000F00AB8204605F1004100F005F8404295
:100DA00061EB410138BD00BFD0B50C4B00220646B7
:100DB0000F46FFF731FCFFF707FF0446FFF7B2FBD2
:100DC000074B0022FFF728FC02460B463046394607
:100DD000FFF76AFAFFF7F8FE2146D0BD0000F03DAC
:100DE0000000F0412DE9F047089D0C46002B4ED144
:100DF00094468C458646B2FA82F262D94AB1C2F173
:100E00002003914020FA03F30CFA02FC194300FA84
:100E100002FE4FEA1C471FFA8CF6B1FBF7F44FEACB
:100E20001E4307FB141143EA014304FB06F19942F8
:100E30000AD91CEB030304F1FF3080F012819942C0
:100E400040F20F81023C6344591A1FFA8EF3B1FB42
:100E5000F7F007FB101143EA014300FB06F69E4240
:100E60000AD91CEB030300F1FF3180F0FC809E42A5
:100E700040F2F980634402389B1B40EA04400021A1
:100E80001DB1D3400022C5E90032BDE8F0878B4296
:100E900005D90DB1C5E9000100210846F5E7B3FA0F
:100EA00083F1002946D1A34202D39042C0F0F080E2
:100EB000861A64EB03030120002DE6D0C5E9006328
:100EC000E3E7002A40F09080A1EB0C044FEA1C48B5
:100ED0001FFA8CF70121B4FBF8F64FEA1E4308FB1A
:100EE000164443EA044307FB06F0984208D91CEB7A
:100EF000030306F1FF3402D2984200F2CD80264669
:100F00001C1A1FFA8EF3B4FBF8F008FB104443EAF6
:100F1000044300FB07F79F4208D91CEB030300F1D1
:100F2000FF3402D29F4200F2B0802046DB1B40EA31
:100F30000640A5E7C1F120068B4022FA06F71F43C1
:100F400020FA06FC04FA01F343EA0C03F44000FA29
:100F500001F8380C4FEA1349B4FBF0FE1FFA87FC86
:100F600000FB1E4449EA04440EFB0CF9A14502FAB9
:100F700001F20AD93C190EF1FF3A80F08480A145B4
:100F800040F28180AEF1020E3C44A4EB09041FFA4A
:100F900083F9B4FBF0F300FB134449EA044403FB78
:100FA0000CFCA44507D93C1903F1FF3067D2A445D6
:100FB00065D9023B3C4443EA0E40A0FB0293A4EBFC
:100FC0000C049C42CE469C4651D34ED055B1B8EB52
:100FD0000E0364EB0C0404FA06F6CB401E43CC402F
:100FE000C5E90064002150E7C2F1200320FA03F1B3
:100FF0000CFA02FC24FA03F394400C434FEA1C4819
:1010000000FA02FE1FFA8CF7B3FBF8F008FB103170
:10101000230C43EA014300FB07F1994208D91CEB7A
:10102000030300F1FF362CD299422AD902386344D7
:101030005B1AA4B2B3FBF8F108FB113344EA034492
:1010400001FB07F3A34208D91CEB040401F1FF36AE
:1010500013D2A34211D902396444E41A41EA00418F
:1010600039E70446F0E6084606E7C845AED2B9EBD4
:10107000020E63EB070C0138A8E73146EDE70346A3
:1010800099E73046D4E7D6467FE7634402384DE718
:101090000646234608460FE7023E634430E700BF9A
:1010A000704700BF80B58EB004AF3B600346FB7154
:1010B0000B46BB7113467B713B6BFB607B6B3B61EB
:1010C000BB6B7B61FB6BBB613B6CFB61B7F8443076
:1010D0003B84B7F848307B84B7F84C30BB84B7F812
:1010E0005030FB843B680C3307F10C011C2218467E
:1010F00051F01AFE3B68002242F021025A7200228F
:101100009A720022DA727B79BA79F97968200290B2
:101110001C2001901C200090386806F010F903464E
:1011200018462837BD4680BD2DE9F0418EB00AAF84
:10113000BB600346FB730B46BB7313467B73BB6AF2
:101140001B687B60BA6A5268B96A8968B86AC06805
:10115000BC6A2469BD6AB5F91450BE6AB6F9166056
:10116000BB6AB3F918303B60BB6A5B8B97F80D80A4
:1011700097F80EE097F80FC008933B680793069620
:10118000059504940390029101927B680093BB68DB
:10119000424671466046FFF785FF03461846103702
:1011A000BD46BDE8F08180B584B000AF786039609D
:1011B0007B68DB78062B28BF0623FB730622002101
:1011C000386850F08BFE7B680C33FA7B1946386820
:1011D00051F0AAFD00BF1037BD4680BD80B598B064
:1011E00004AF3B6287ED070AC7ED060A87ED051AD3
:1011F000C7ED041A87ED032AC7ED022A87ED013AED
:10120000034687F827300B4687F82630134687F8C1
:101210002530FB69FB62BB693B637B697B633B6990
:10122000BB63FB68FB63BB683B647B687B64B7F8AC
:101230006030A7F8483097F8583087F84A3097F868
:101240005C3087F84B3097F8643087F84C303B6A55
:101250000C3307F12C012122184651F065FD3B6A41
:10126000002242F04C025A7200229A720022DA7274
:1012700097F8253097F8262097F8271098200290A5
:101280002120019021200090386A06F058F803468A
:1012900018465037BD4680BDF0B587B004AF3B60FF
:1012A0000346FB710B46BB7113467B713B6A9B7F08
:1012B0003A6AD27F396A898B386A90F820003C6A92
:1012C000D4ED007A3C6A94ED017A3C6AD4ED026A6E
:1012D0003C6A94ED036A3C6AD4ED045A3C6A94ED8E
:1012E000055A3C6AD4ED064A7E79BD79FC790390B3
:1012F000029101920093B0EE643AF0EE452AB0EE0E
:10130000652AF0EE461AB0EE661AF0EE470AB0EE25
:10131000670A3B68324629462046FFF75FFF0346CF
:1013200018460C37BD46F0BD80B584B000AF78607C
:1013300039607B68DB780A2B28BF0A23FB730A22FB
:101340000021386850F0CAFD7B680C33FA7B1946DF
:10135000386851F0E9FC00BF1037BD4680BD80B54C
:101360008AB004AF3B600346FB710B46BB7113466A
:101370007B71FB6AFB6097F820303B7497F8243050
:101380007B7497F82830BB7497F83030FB740323D4
:101390003B753B680C3307F10C010922184651F0EC
:1013A000C3FC3B6800225A7200229A720022DA7251
:1013B0007B79BA79F97932200290092001900920CD
:1013C0000090386805F0BBFF034618461837BD4645
:1013D00080BDF0B589B006AF3B600346FB710B469C
:1013E000BB7113467B713B6A1B793A6A5279396A41
:1013F0008979386A00683C6AE47997F805C0BE7953
:10140000FD79049403900291019200933B68624637
:1014100031462846FFF7A3FF034618460C37BD4662
:10142000F0BD80B584B000AF786039607B68DB7850
:10143000092B28BF0923FB7309220021386850F0CB
:101440004DFD7B680C33FA7B1946386851F06CFC13
:1014500000BF1037BD4680BD80B586B002AF786052
:101460001D491E4811F0BAFAF860FB68002B10D035
:1014700040F21B1301931A4B009340F21B13184ABE
:101480001849012023F09EFA4FF0EC024FF00003C0
:101490001DE060227968114811F0DEFAF860FB68FF
:1014A000002B10D04FF4917301930D4B00934FF428
:1014B00091730B4A0C49012023F084FA4FF0EC029F
:1014C0004FF0000303E04FF000024FF0000310461E
:1014D00019461037BD4680BDFFFF000800C0000858
:1014E0008C130808986C0608C06C060880B588B094
:1014F00004AF78604FF000024FF00003C7E9022309
:101500001F4A7B681846114660231A4651F00CFCAE
:101510007B681B68012B18D07B68DB6D642B14D0B3
:101520001848FFF799FFC7E90201D7E90223CDE97F
:1015300002234FF49C730193134B00934FF49C735D
:10154000114A1249012023F03DFA7B681B681A46B4
:101550007B68DB6D0393029240F23B1301930A4BCD
:10156000009340F23B13084A0949012023F02AFA6C
:10157000D7E90223104619461037BD4680BD00BF8B
:1015800000C0000800000020A0130808E86C06084E
:10159000186D060880B584B002AF00233B6026F0CA
:1015A000ADFD78607B681B6B3A46104698473A68F9
:1015B000134B1B681B68D31A41F27072934207D811
:1015C0000F4B1B681B7983F00103DBB2002B11D09A
:1015D0000B4B1B6800221A7140F255130193094B03
:1015E000009340F25513074A0749012023F0EAF916
:1015F000002300E0012318460837BD4680BD00BF28
:10160000B4110020B41308083C6D060890B5ADF580
:10161000177D04AF26F072FDC7F84402D7F84432B4
:101620005B69594A1268D2F8602110469847C7E9A9
:101630008E01D7E98E23134312D0D7E98E23CDE94B
:1016400002234FF4B5730193504B00934FF4B573DD
:101650004E4A4F49002023F0B5F9D7E98E238CE09C
:10166000012387F83732FA2387F83632012387F8C7
:101670003532002387F82832082387F8293240239F
:1016800087F82A320023C7F82432042387F82B3244
:1016900007F51273A3F5A473184640F223131A46F4
:1016A000002150F01BFC07F5807497F8352297F85D
:1016B000361297F8370207F5097300932346FFF7B0
:1016C00088FE0023A7F832323B46FF22002118464D
:1016D00050F004FC07F580723B461146184605F0B1
:1016E00080FE0346A7F83232B7F83232002B17D00B
:1016F000B7F83222394697F83532184606F021FB02
:10170000D7F844329B69204A1268D2F8602110460B
:101710009847C7E98E01D7E98E23134329D015E0F6
:1017200040F28F130393194B029340F28F130193EE
:10173000164B009340F28F13144A1649002023F0F1
:1017400041F94FF0E3024FF0000316E0D7E98E2392
:10175000CDE902234FF4CB7301930C4B00934FF46C
:10176000CB730A4A0C49002023F02CF9D7E98E23C9
:1017700003E04FF000024FF000031046194607F552
:101780001377BD4690BD00BFB4110020CC130808EC
:10179000686D0608A46D0608D46D060800000000F8
:1017A00090B5ADF51B7D04AF26F0A8FCC7F8540238
:1017B000A74B1B68D3F85831002B04D14FF480722B
:1017C0004FF0000337E1D7F854325B69A04A126842
:1017D000D2F8602110469847C7E99201D7E99223D1
:1017E000134312D0D7E99223CDE902234FF41073AB
:1017F0000193984B00934FF41073964A964900203A
:1018000023F0E0F8D7E9922315E107F51673A3F565
:101810009C73184640F223131A46002150F05EFBD9
:101820000023A7F8463207F51673A3F5AA731A46E4
:101830000023136053609360D3601361536193611D
:10184000012387F84532FA2387F84432012387F8C9
:101850004332D7F854321B6B07F582721046984713
:101860007E4B986DD96D78A3D3E90023FEF7D4FEA3
:1018700002460B4610461946FFF77EF9024607F569
:101880001673A3F5AA735A60744B186D596D6EA345
:10189000D3E90023FEF7C0FE02460B461046194668
:1018A000FFF76AF9024607F51673A3F5AA739A6063
:1018B0006A4B1B6EDFED6A7A07EE103A67EE277A05
:1018C000FDEEE77A17EE902A07F51673A3F5AA73D3
:1018D000DA6007F51673A3F5AA7300221A615F4B4D
:1018E0005B6EDFED607A07EE103A67EE277AFDEE69
:1018F000E77A17EE903A1AB207F51673A3F5AA73B2
:101900009A82564B9B6EDFED577A07EE103A67EEE0
:10191000277AFDEEE77A17EE903A1AB207F51673BA
:10192000A3F5AA73DA824D4BDB6EDFED4E7A07EE3C
:10193000103A67EE277AFDEEE77A17EE903A1AB280
:1019400007F51673A3F5AA731A83444BB3F97030E5
:101950009AB207F51673A3F5AA735A8307F5907424
:1019600097F8432297F8441297F8450207F58273D7
:1019700000932346FFF7D8FB07F51673A3F51573FD
:1019800000221A600433FB220021184650F0A6FA08
:1019900007F590723B1D1146184605F022FD0346DF
:1019A000A7F84632B7F84632002B17D0B7F84622D0
:1019B000391D97F84332184606F0C3F9D7F8543268
:1019C0009B69234A1268D2F8602110469847C7E9FC
:1019D0009201D7E99223134329D015E040F26D23F9
:1019E00003931C4B029340F26D230193194B009318
:1019F00040F26D23174A1C49002022F0E3FF4FF00C
:101A0000E3024FF0000316E0D7E99223CDE9022369
:101A10004FF41D7301930F4B00934FF41D730D4A48
:101A20001249002022F0CEFFD7E9922303E04FF0C5
:101A300000024FF000031046194607F51777BD4620
:101A400090BD00BFAFF3008000000000D0126341E2
:101A5000B4110020E8130808686D0608C01D0020B6
:101A600000007A4400401C46A46D0608D46D0608A8
:101A700090B5ADF51F7D04AF024607F51A73A3F2CA
:101A800061231A7026F03AFBC7F864029F4B1B686B
:101A90001B7983F00103DBB2002B04D04FF480727A
:101AA0004FF000032CE1D7F864325B69974A126863
:101AB000D2F8602110469847C7E99601D7E99623E6
:101AC000134312D0D7E99623CDE9022340F25933CC
:101AD00001938F4B009340F259338D4A8D4900207A
:101AE00022F070FFD7E996230AE107F51A73A3F5F0
:101AF0009C73184640F223131A46002150F0EEF969
:101B00000023A7F8563207F51A73A3F5AE731846EB
:101B100024231A46002150F0E1F9012387F85532B9
:101B2000FA2387F85432012387F8533207F51A73E2
:101B3000A3F5AE73C8229A8307F51A73A3F5AE73A3
:101B4000754A1A6007F51A73A3F261231B7807EE32
:101B5000903AF8EE677A07F51A73A3F5AE73C3ED02
:101B6000017A07F51A73A3F5AE734FF000029A607D
:101B700007F51A73A3F5AE734FF08042DA6007F5EC
:101B80001A73A3F5AE734FF000021A6107F51A73CA
:101B9000A3F5AE734FF000025A6107F51A73A3F56F
:101BA000AE734FF000029A6107F51A73A3F5AE7396
:101BB000002283F8202007F51A73A3F5AE73642280
:101BC000DA7707F51A73A3F5AE7301229A7707F552
:101BD000987497F8532297F8541297F8550207F51E
:101BE000867300932346FFF757FB07F51A73A3F597
:101BF000177300221A600433FB220021184650F0AC
:101C00006DF907F5987207F10C031146184605F0B7
:101C1000E8FB0346A7F85632B7F85632002B23D01C
:101C2000B7F8562207F10C0197F85332184606F020
:101C300088F8364B1B6807F51A72A2F5AE72928BC4
:101C4000A3F85E21D7F864329B6A304A1268D2F852
:101C500064214FF47A7110469847C7E99601D7E995
:101C60009623134326D015E04FF460730393284B5B
:101C700002934FF460730193254B00934FF460730C
:101C8000234A2649002022F09DFE4FF0E3024FF048
:101C9000000335E0D7E99623CDE902234FF46373BF
:101CA00001931B4B00934FF46373194A1C490020A6
:101CB00022F088FED7F864329B69144A1268D2F881
:101CC000602110469847C7E99601D7E99623134348
:101CD00012D0D7E99623CDE9022340F29533019340
:101CE0000B4B009340F29533094A0E49002022F035
:101CF00069FED7E9962303E04FF000024FF000039E
:101D00001046194607F51B77BD4690BDB41100205B
:101D10000C140808686D06080000C842A46D060887
:101D2000306E0608D46D0608B0B5ADF51E7D04AF63
:101D300005460C461046194607F51A73A3F26123AF
:101D40002A461A7007F51A73A3F2622322461A7004
:101D500007F51A73A3F2632302461A7007F51A7384
:101D6000A3F519730A461A7026F0C8F9C7F8640279
:101D7000C44B1B681B7983F00103DBB2002B04D03A
:101D80004FF480724FF0000375E1D7F864325B695D
:101D9000BC4A1268D2F8602110469847C7E99601FC
:101DA000D7E99623134312D0D7E99623CDE902232E
:101DB0004FF46C730193B44B00934FF46C73B24ABD
:101DC000B249002022F0FEFDD7E9962353E107F542
:101DD0001A73A3F59C73184640F223131A46002188
:101DE00050F07CF80023A7F8563207F51A73A3F5D4
:101DF000AE73184624231A46002150F06FF80123D1
:101E000087F85532FA2387F85432012387F8533282
:101E100007F51A73A3F5AE73CA229A8307F51A73EE
:101E2000A3F261231B7807EE903AF8EE677A07F584
:101E30001A73A3F5AE73C3ED007A07F51A73A3F214
:101E400062231B7807EE903AF8EE677A07F51A736B
:101E5000A3F5AE73C3ED017A07F51A73A3F5AE735C
:101E60004FF000029A6007F51A73A3F5AE734FF0B6
:101E70000002DA6007F51A73A3F263231B7807EEFA
:101E8000903AF8EE677A07F51A73A3F5AE73C3EDCF
:101E9000047A07F51A73A3F519731B7807EE903AC5
:101EA000F8EE677A07F51A73A3F5AE73C3ED057AFA
:101EB00097F8783207EE903AF8EE677A07F51A73DA
:101EC000A3F5AE73C3ED067A07F51A73A3F5AE73E7
:101ED000002283F8202007F51A73A3F5AE7364225D
:101EE000DA7707F51A73A3F5AE7301229A7707F52F
:101EF000987497F8532297F8541297F8550207F5FB
:101F0000867300932346FFF7C7F907F51A73A3F505
:101F1000177300221A600433FB22002118464FF089
:101F2000DDFF07F5987207F10C031146184605F01E
:101F300058FA0346A7F85632B7F85632002B23D08A
:101F4000B7F8562207F10C0197F85332184605F0FE
:101F5000F8FE4C4B1B6807F51A72A2F5AE72928B15
:101F6000A3F85E21D7F864329B6A464A1268D2F819
:101F700064214FF47A7110469847C7E99601D7E972
:101F80009623134327D015E040F2DD3303933E4BF5
:101F9000029340F2DD3301933B4B009340F2DD337B
:101FA000394A3B49002022F00DFD4FF0E3024FF08B
:101FB000000360E0D7E99623CDE9022340F2E9333C
:101FC0000193314B009340F2E9332F4A314900200D
:101FD00022F0F8FC24E0304A07F51A73A3F26123DB
:101FE0001B781BB293822C4A07F51A73A3F2622363
:101FF0001B781BB25383284A07F51A73A3F2632395
:102000001B781BB29383244A07F51A73A3F519733F
:102010001B781BB21384204B97F8782212B25A8493
:10202000184B1B680022A3F85E21D7F864329B6925
:10203000144A1268D2F8602110469847C7E9960101
:10204000D7E99623134312D0D7E99623CDE902238B
:1020500040F2F93301930C4B009340F2F9330A4AF2
:102060000E49002022F0AEFCD7E9962303E04FF0A2
:1020700000024FF000031046194607F51A77BD46D7
:10208000B0BD00BFB41100202C140808686D06080C
:10209000A46D0608306E0608B81100206C6E0608A4
:1020A00090B5ADF5257D04AF07F52073A3F5197341
:1020B00083ED000A07F52073A3F51A73C3ED000A38
:1020C00007F52073A3F51B7383ED001A07F5207342
:1020D000A3F51C73C3ED001A07F52073A3F51D7358
:1020E00083ED002A07F52073A3F51E73C3ED002AC4
:1020F00007F52073A3F51F7383ED003A25F0FEFF6B
:10210000C7F87C02A94B1B681B7983F00103DBB283
:10211000002B04D04FF480724FF000033FE1D7F85A
:102120007C325B69A14A1268D2F860211046984758
:10213000C7E99C01D7E99C23134312D0D7E99C231C
:10214000CDE9022340F219430193994B009340F2E9
:102150001943974A9749002022F034FCD7E99C2381
:102160001DE107F52073A3F59C73184640F2231375
:102170001A4600214FF0B2FE0023A7F86E3207F591
:102180002073A3F5AE73184624231A4600214FF09E
:10219000A5FE012387F86D32FA2387F86C320123FC
:1021A00087F86B3207F52073A3F5AE73CB229A83C1
:1021B00007F52073A3F5AE7307F52072A2F5197227
:1021C00012681A6007F52073A3F5AE7307F5207245
:1021D000A2F51A7212685A6007F52073A3F5AE7360
:1021E00007F52072A2F51B7212689A6007F520733A
:1021F000A3F5AE7307F52072A2F51C721268DA60BF
:1022000007F52073A3F5AE7307F52072A2F51D72D2
:1022100012681A6107F52073A3F5AE7307F52072F3
:10222000A2F51E7212685A6107F52073A3F5AE730A
:1022300007F52072A2F51F7212689A6107F52073E4
:10224000A3F5AE73002283F8202007F52073A3F5D1
:10225000AE736422DA7707F52073A3F5AE7301221B
:102260009A7707F5A47497F86B2297F86C1297F891
:102270006D0207F5927300932346FFF70DF807F5FB
:102280002073A3F5177300221A600433FB22002188
:1022900018464FF023FE07F5A47207F124031146F8
:1022A000184605F09EF80346A7F86E32B7F86E326E
:1022B000002B23D0B7F86E2207F1240197F86B3278
:1022C000184605F03EFD394B1B6807F52072A2F554
:1022D000AE72928BA3F85E21D7F87C329B6A334AA8
:1022E0001268D2F864214FF47A7110469847C7E912
:1022F0009C01D7E99C23134326D015E040F24143CB
:1023000003932B4B029340F241430193284B0093DC
:1023100040F24143264A2849002022F053FB4FF067
:10232000E3024FF000033AE0D7E99C23CDE9022312
:1023300040F24D4301931E4B009340F24D431C4A23
:102340001E49002022F03EFB184B1B680022A3F818
:102350005E21D7F87C329B69144A1268D2F860215A
:1023600010469847C7E99C01D7E99C23134312D034
:10237000D7E99C23CDE9022340F2574301930C4B4C
:10238000009340F257430A4A0D49002022F01AFBFD
:10239000D7E99C2303E04FF000024FF00003104602
:1023A000194607F52177BD4690BD00BFB411002046
:1023B00050140808686D0608A46D0608306E0608FB
:1023C0006C6E060890B5ADF51F7D04AF024607F5AB
:1023D0001A73A3F261231A7007F51A73A3F262232A
:1023E0000A461A7025F08AFEC7F86402B34B1B68D0
:1023F0001B7983F00103DBB2002B04D04FF4807211
:102400004FF0000354E1D7F864325B69AB4A1268BD
:10241000D2F8602110469847C7E99601D7E996237C
:10242000134312D0D7E99623CDE9022340F26F433C
:102430000193A34B009340F26F43A14AA1490020AE
:1024400022F0C0FAD7E9962332E107F51A73A3F216
:1024500061231B78092B05D907F51A73A3F26123B1
:1024600008221A7007F51A73A3F262231B78052B52
:1024700005D907F51A73A3F2612304221A7007F530
:102480001A73A3F59C73184640F223131A460021D1
:102490004FF024FD0023A7F8563207F51A73A3F571
:1024A000AE73184624231A4600214FF017FD01236E
:1024B00087F85532FA2387F85432012387F85332CC
:1024C00007F51A73A3F5AE73CB229A8307F51A7337
:1024D000A3F5AE734FF000021A6007F51A73A3F26A
:1024E00062231B7807EE903AF8EE677A07F51A73C5
:1024F000A3F5AE73C3ED017A07F51A73A3F2612356
:102500001B7807EE903AF8EE677A07F51A73A3F591
:10251000AE73C3ED027A07F51A73A3F5AE734FF0ED
:102520000002DA6007F51A73A3F5AE734FF00002EC
:102530001A6107F51A73A3F5AE734FF000025A61E2
:1025400007F51A73A3F5AE734FF000029A6107F511
:102550001A73A3F5AE73002283F8202007F51A73CF
:10256000A3F5AE736422DA7707F51A73A3F5AE7399
:1025700001229A7707F5987497F8532297F8541226
:1025800097F8550207F5867300932346FEF784FEFD
:1025900007F51A73A3F5177300221A600433FB22A0
:1025A000002118464FF09AFC07F5987207F10C03CA
:1025B0001146184604F015FF0346A7F85632B7F83F
:1025C0005632002B23D0B7F8562207F10C0197F8AA
:1025D0005332184605F0B5FB384B1B6807F51A72E5
:1025E000A2F5AE72928BA3F85E21D7F864329B6A93
:1025F000324A1268D2F864214FF47A711046984733
:10260000C7E99601D7E99623134326D015E040F297
:102610009E4303932A4B029340F29E430193284B1F
:10262000009340F29E43264A2749002022F0CAF92F
:102630004FF0E3024FF000033AE0D7E99623CDE9EB
:10264000022340F2AA4301931D4B009340F2AA4398
:102650001B4A1E49002022F0B5F9184B1B680022C6
:10266000A3F85E21D7F864329B69144A1268D2F845
:10267000602110469847C7E99601D7E9962313438E
:1026800012D0D7E99623CDE9022340F2B443019357
:102690000B4B009340F2B443094A0D49002022F04D
:1026A00091F9D7E9962303E04FF000024FF00003C1
:1026B0001046194607F51B77BD4690BDB4110020A2
:1026C00070140808686D0608A46D0608306E0608C8
:1026D0006C6E060890B5ADF51D7D04AF25F00EFDBE
:1026E000C7F85C02A14B1B681B7983F00103DBB2C6
:1026F000002B04D04FF480724FF000032FE1D7F885
:102700005C325B69994A1268D2F86021104698479A
:10271000C7E99401D7E99423134312D0D7E994234E
:10272000CDE9022340F2D4430193914B009340F250
:10273000D4438F4A8F49002022F044F9D7E99423EB
:102740000DE107F51873A3F59C73184640F22313A7
:102750001A4600214FF0C2FB0023A7F84E3207F5BE
:102760001873A3F5AE73184624231A4600214FF0C0
:10277000B5FB012387F84D32FA2387F84C32012349
:1027800087F84B3207F51873A3F5AE734FF4FA626E
:102790009A8307F51873A3F5AE734FF000021A6021
:1027A00007F51873A3F5AE734FF000025A60724B31
:1027B000B3F9163007EE903AF8EEE77A07F518739A
:1027C000A3F5AE73C3ED027A07F51873A3F5AE73E4
:1027D0004FF00002DA6007F51873A3F5AE734FF0FF
:1027E00000021A6107F51873A3F5AE734FF00002EB
:1027F0005A6107F51873A3F5AE734FF000029A61A2
:1028000007F51873A3F5AE73002283F8202007F5AF
:102810001873A3F5AE736422DA7707F51873A3F57E
:10282000AE7301229A7707F5947497F84B2297F8C4
:102830004C1297F84D0207F5827300932346FEF77A
:102840002BFD07F51873A3F5177300221A600433E4
:10285000FB22002118464FF041FB07F594723B1D07
:102860001146184604F0BDFD0346A7F84E32B7F8EE
:102870004E32002B22D0B7F84E22391D97F84B323A
:10288000184605F05EFA394B1B6807F51872A2F579
:10289000AE72928BA3F85E21D7F85C329B6A334A02
:1028A0001268D2F864214FF47A7110469847C7E94C
:1028B0009401D7E99423134326D015E040F2FB435B
:1028C00003932B4B029340F2FB430193284B00935D
:1028D00040F2FB43264A2949002022F073F84FF0CA
:1028E000E3024FF000033AE0D7E99423CDE9022355
:1028F00040F2075301931E4B009340F207531C4ACA
:102900001F49002022F05EF8184B1B680022A3F834
:102910005E21D7F85C329B69144A1268D2F86021B4
:1029200010469847C7E99401D7E99423134312D07E
:10293000D7E99423CDE9022340F2115301930C4BC4
:10294000009340F211530A4A0E49002022F03AF84F
:10295000D7E9942303E04FF000024FF00003104644
:10296000194607F51977BD4690BD00BFB411002088
:1029700084140808686D0608B8110020A46D0608C4
:10298000306E06086C6E060890B5ADF51D7D04AF7F
:1029900025F0B4FBC7F85C02A94B1B681B7983F0D8
:1029A0000103DBB2002B04D04FF480724FF0000320
:1029B0003FE1D7F85C325B69A14A1268D2F8602126
:1029C00010469847C7E99401D7E99423134312D0DE
:1029D000D7E99423CDE9022340F27E530193994B2A
:1029E000009340F27E53974A9749002021F0EAFF76
:1029F000D7E994231DE107F51873A3F59C731846D6
:102A000040F223131A4600214FF068FA0023A7F87A
:102A10004E3207F51873A3F5AE73184624231A46F1
:102A200000214FF05BFA012387F84D32FA2387F833
:102A30004C32012387F84B3207F51873A3F5AE73B8
:102A400040F6C4129A8307F51873A3F5AE734FF0DE
:102A500000021A607D4BB3F9183007EE903AF8EE99
:102A6000E77A07F51873A3F5AE73C3ED017A07F59E
:102A70001873A3F5AE734FF000029A6007F5187350
:102A8000A3F5AE734FF00002DA6007F51873A3F5F3
:102A9000AE734FF000021A6107F51873A3F5AE7319
:102AA0004FF000025A6107F51873A3F5AE734FF0AB
:102AB00000029A61654BB3F91830029340F29253C9
:102AC0000193604B009340F292535E4A60490220AA
:102AD00021F078FF07F51873A3F5AE73002283F891
:102AE000202007F51873A3F5AE736422DA7707F593
:102AF0001873A3F5AE7301229A7707F5947497F8CB
:102B00004B2297F84C1297F84D0207F58273009309
:102B10002346FEF7C1FB07F51873A3F517730022D0
:102B20001A600433FB22002118464FF0D7F907F54D
:102B300094723B1D1146184604F053FC0346A7F857
:102B40004E32B7F84E32002B22D0B7F84E22391D44
:102B500097F84B32184605F0F4F8394B1B6807F527
:102B60001872A2F5AE72928BA3F85E21D7F85C3290
:102B70009B6A334A1268D2F864214FF47A71104686
:102B80009847C7E99401D7E99423134326D015E069
:102B900040F2A45303932B4B029340F2A4530193AE
:102BA000284B009340F2A453264A2A49002021F0E2
:102BB00009FF4FF0E3024FF000033AE0D7E9942316
:102BC000CDE902234FF4B66301931E4B00934FF4FB
:102BD000B6631C4A2049002021F0F4FE184B1B6804
:102BE0000022A3F85E21D7F85C329B69144A126870
:102BF000D2F8602110469847C7E99401D7E9942399
:102C0000134312D0D7E99423CDE9022340F2BA53FB
:102C100001930C4B009340F2BA530A4A0F4900202B
:102C200021F0D0FED7E9942303E04FF000024FF0EB
:102C300000031046194607F51977BD4690BD00BF41
:102C4000B4110020A8140808686D0608B811002007
:102C5000A06E0608A46D0608306E06086C6E0608A5
:102C600090B5ADF51D7D04AF25F048FAC7F85C02BC
:102C70009E4B1B681B7983F00103DBB2002B04D051
:102C80004FF480724FF0000329E1D7F85C325B69A2
:102C9000964A1268D2F8602110469847C7E9940115
:102CA000D7E99423134312D0D7E99423CDE9022323
:102CB00040F2D25301938E4B009340F2D2538C4A90
:102CC0008C49002021F07EFED7E9942307E107F527
:102CD0001873A3F59C73184640F223131A4600217B
:102CE0004FF0FCF80023A7F84E3207F51873A3F550
:102CF000AE73184624231A4600214FF0EFF8012343
:102D000087F84D32FA2387F84C32012387F84B328B
:102D100007F51873A3F5AE7340F6C5129A8307F54D
:102D20001873A3F5AE734FF000021A6007F518731D
:102D3000A3F5AE734FF000025A6007F51873A3F5C0
:102D4000AE734FF000029A6007F51873A3F5AE73E7
:102D50004FF00002DA6007F51873A3F5AE734FF079
:102D600000021A6107F51873A3F5AE734FF0000265
:102D70005A6107F51873A3F5AE734FF000029A611C
:102D800007F51873A3F5AE73002283F8202007F52A
:102D90001873A3F5AE736422DA7707F51873A3F5F9
:102DA000AE7301229A7707F5947497F84B2297F83F
:102DB0004C1297F84D0207F5827300932346FEF7F5
:102DC0006BFA07F51873A3F5177300221A60043322
:102DD000FB22002118464FF081F807F594723B1D45
:102DE0001146184604F0FDFA0346A7F84E32B7F82C
:102DF0004E32002B22D0B7F84E22391D97F84B32B5
:102E0000184604F09EFF394B1B6807F51872A2F5AF
:102E1000AE72928BA3F85E21D7F85C329B6A334A7C
:102E20001268D2F864214FF47A7110469847C7E9C6
:102E30009401D7E99423134326D015E04FF4BF63E0
:102E400003932B4B02934FF4BF630193284B0093E2
:102E50004FF4BF63264A2849002021F0B3FD4FF00C
:102E6000E3024FF000033AE0D7E99423CDE90223CF
:102E700040F2046301931E4B009340F204631C4A2A
:102E80001E49002021F09EFD184B1B680022A3F86C
:102E90005E21D7F85C329B69144A1268D2F860212F
:102EA00010469847C7E99401D7E99423134312D0F9
:102EB000D7E99423CDE9022340F20E6301930C4B32
:102EC000009340F20E630A4A0D49002021F07AFD7A
:102ED000D7E9942303E04FF000024FF000031046BF
:102EE000194607F51977BD4690BD00BFB411002003
:102EF000CC140808686D0608A46D0608306E060834
:102F00006C6E0608B0B5ADF51E7D04AF05460C46E7
:102F10001046194607F51A73A3F261232A461A7060
:102F200007F51A73A3F2622322461A7007F51A7383
:102F3000A3F2632302461A7007F51A73A3F51973F7
:102F40000A461A7025F0DAF8C7F86402B64B1B6817
:102F50001B7983F00103DBB2002B04D04FF48072A5
:102F60004FF000035AE1D7F864325B69AE4A126849
:102F7000D2F8602110469847C7E99601D7E9962311
:102F8000134312D0D7E99623CDE9022340F22C63F4
:102F90000193A64B009340F22C63A44AA44900205D
:102FA00021F010FDD7E9962338E107F51A73A3F550
:102FB0009C73184640F223131A4600214EF08EFFF0
:102FC0000023A7F8563207F51A73A3F5AE73184617
:102FD00024231A4600214EF081FF012387F8553241
:102FE000FA2387F85432012387F8533207F51A730E
:102FF000A3F5AE7347F622129A8307F51A73A3F26C
:1030000061231B7807EE903AF8EE677A07F51A739A
:10301000A3F5AE73C3ED007A07F51A73A3F262232A
:103020001B7807EE903AF8EE677A07F51A73A3F566
:10303000AE73C3ED017A07F51A73A3F263231B780D
:1030400007EE903AF8EE677A07F51A73A3F5AE73B8
:10305000C3ED027A07F51A73A3F519731B7807EE0F
:10306000903AF8EE677A07F51A73A3F5AE73C3EDDD
:10307000037AB7F9783207EE903AF8EEE77A07F577
:103080001A73A3F5AE73C3ED047A97F87C3207EE9A
:10309000903AF8EE677A07F51A73A3F5AE73C3EDAD
:1030A000057AB7F8803207EE903AF8EE677A07F5BE
:1030B0001A73A3F5AE73C3ED067A07F51A73A3F579
:1030C000AE73002283F8202007F51A73A3F5AE73C0
:1030D0006422DA7707F51A73A3F5AE7301229A77A3
:1030E00007F5987497F8532297F8541297F85502F9
:1030F00007F5867300932346FEF7CEF807F51A739B
:10310000A3F5177300221A600433FB22002118462E
:103110004EF0E4FE07F5987207F10C0311461846CD
:1031200004F05FF90346A7F85632B7F85632002B81
:1031300023D0B7F8562207F10C0197F853321846FE
:1031400004F0FFFD384B1B6807F51A72A2F5AE724A
:10315000928BA3F85E21D7F864329B6A324A1268D8
:10316000D2F864214FF47A7110469847C7E9960166
:10317000D7E99623134326D015E040F25263039318
:103180002A4B029340F252630193284B009340F282
:103190005263264A2749002021F014FC4FF0E30235
:1031A0004FF000033AE0D7E99623CDE9022340F23D
:1031B0005E6301931D4B009340F25E631B4A1E4900
:1031C000002021F0FFFB184B1B680022A3F85E21B2
:1031D000D7F864329B69144A1268D2F8602110460D
:1031E0009847C7E99601D7E99623134312D0D7E948
:1031F0009623CDE902234FF4CD6301930B4B00934B
:103200004FF4CD63094A0D49002021F0DBFBD7E9DB
:10321000962303E04FF000024FF0000310461946DA
:1032200007F51A77BD46B0BDB4110020EC140808AC
:10323000686D0608A46D0608306E06086C6E0608F8
:1032400090B593B008AF78607B68002B00F0978052
:103250007B685A7A997A09020A43DB7A1B04134382
:103260004D2B62D04D2B00F38D80422B36D0422B5C
:1032700000F38880042B17D0042B00F38380002BED
:1032800002D0022B1DD07DE007F11C03194678689F
:10329000FEF7C7F83D4B1B6801221A713B4B1B68B8
:1032A00018460EF0B3FD6DE040F2C9630193384B50
:1032B000009340F2C963364A3649022021F082FB6E
:1032C00060E040F2CE630193314B009340F2CE6355
:1032D0002F4A3149022021F075FB53E007F1140316
:1032E00019467868FDF75FFFBB8A3A7E797EF87DE4
:1032F000BC7D0694059004910392029340F2DB6337
:103300000193234B009340F2DB63214A23490220BF
:1033100021F058FB1D4B1B680122C3F858211B4BA1
:103320001B68BA8AA3F85C212CE007F10803194650
:103330007868FDF7F9FF154B1B68B3F85E213B89F0
:103340009A421ED1114B1B68D3F8643118460EF017
:103350003AFD02460B46134313D040F2F463019347
:103360000B4B009340F2F463094A0D49002021F011
:1033700029FB064B1B680022A3F85E2101E000BF79
:1033800000E000BF2C37BD4690BD00BFB411002047
:1033900004150808CC6E0608FC6E0608346F060893
:1033A0007C6F060880B584B000AF78600B467B80E8
:1033B0007B881A467968052010F068FBF860FB6886
:1033C00018461037BD4680BD80B584B000AF786028
:1033D0000B467B807B881A467968052010F0EEFB4F
:1033E000F860FB6818461037BD4680BD80B584B0D4
:1033F00000AF78600B467B800023FB601BE0FB681E
:103400007A6813441B78FB72114B1B689A1D104B92
:103410001B6803F59673F97A012004F055FC034606
:10342000002B05D00A4B1B6806331846FFF708FF30
:10343000FB680133FB607B88FA689A42DFDB4FF060
:1034400000024FF00003104619461037BD4680BDFC
:10345000B411002080B588B004AF24F04FFEF860AE
:10346000FB68DB6B4FF4B47098470346504A136017
:103470004F4B1B68002B10D140F2657301934D4BED
:10348000009340F265734B4A4B49002021F09AFAB1
:103490004FF0E2024FF0000385E0454B1B684FF40C
:1034A000B472002118464EF019FD4FF46141052019
:1034B00010F088F93E4B1B68012283F848213C4BF1
:1034C0001B68012283F84921394B1B683B4AC3F82A
:1034D0004C21374B1B6803F5A473184604F068FCB5
:1034E000FB68DB68324A126802F5B07210469847F2
:1034F00002460B46134310D040F27A7301932D4BD2
:10350000009340F27A732B4A2D49002021F05AFA99
:103510004FF0FF024FF0000345E0FB68DB69244AEF
:10352000126802F5B27211460120984702460B4616
:10353000134310D04FF4F06301931E4B00934FF4EC
:10354000F0631C4A1F49002021F03CFA4FF0FF02B3
:103550004FF0000327E0FB689B6A154A1268D2F817
:103560006421002110469847C7E90001D7E90023EC
:10357000134314D0D7E90023CDE9022340F2877327
:1035800001930C4B009340F287730A4A0E490020C6
:1035900021F018FA4FF0FF024FF0000303E04FF064
:1035A00000024FF00003104619461037BD4680BD9B
:1035B000B411002020150808AC6F0608C9330108B3
:1035C000E06F0608147006084870060880B588B0D9
:1035D00002AF786000237B6124F090FD3861FF2109
:1035E0003048FFF7DFFEF860FB68002B05DDFB6865
:1035F0009BB219462B48FFF7F9FE3B699B680120F7
:1036000098477B6901337B610023BB603B691B6B7F
:1036100007F108021046984702460B4613430BD0A9
:1036200040F2AB730193204B009340F2AB731E4A00
:103630001E49002021F0C6F9BA681D4B1B681B68A3
:10364000D31A41F27072934208D9194B1B681B7947
:10365000002B03D0164B1B6800221A71154B1B78E8
:10366000052BBCD17A69144BA3FB02139B094FF4C1
:103670007A7101FB03F3D31A002B02D1022000F070
:1036800061FD7A690C4BA3FB02135B094FF4FA71DD
:1036900001FB03F3D31A002BA1D1042000F052FD4B
:1036A0009DE700BFEC110020381508087C70060863
:1036B000B4110020F8120020D34D6210F0B593B081
:1036C0000AAF78604FF0EC024FF00003C7E9042323
:1036D0000023FB7713F05FF903464A4A136024F096
:1036E0000DFDF860FB689B6801209847464B1B68FE
:1036F0000133454A1360454B1B78002B0BD1444BDB
:103700001B6800221A71424B1B6800225A713F4B02
:1037100001221A70E6E73D4B1B78012B5DD13A4B35
:103720001A683C4BA3FB02139B094FF47A7101FB0F
:1037300003F3D31A002B17D1FDF768FFC7E9040183
:10374000D7E9042313430FD0D7E90423CDE902239B
:1037500040F2F3730193304B009340F2F3732E4A1F
:103760002E49002021F02EF9274B1A68294BA3FB84
:1037700002135B094FF4FA7101FB03F3D31A002B18
:1037800017D1FEF70DF8C7E90401D7E90423134365
:103790000FD0D7E90423CDE9022340F2FB73019354
:1037A0001D4B009340F2FB731B4A1D49002021F082
:1037B00009F9174B1B681B79002B93D0144B1B681E
:1037C000D3F85831002B8DD0114B1B680022C3F861
:1037D00058210E4B02221A7084E70C4B1B78022BE7
:1037E00020D10B4B1B685B7983F00103DBB2002B0C
:1037F00003D0074B1B6801225A71044B03221A7035
:1038000070E700BFF4120020FC120020F812002024
:10381000B4110020D34D621048150808A0700608A6
:10382000D8700608714B1B78032B40F01A81704842
:10383000FDF75CFE02460B4613437FF453AF6C4B1F
:10384000DB69002B1ED06A4BDB69012B1AD0684B59
:10385000DB69022B16D0664BDB69032B12D0644B5D
:10386000DB69042B0ED0624BDB69052B0AD0604B61
:10387000DB69062B06D05E4BDB69072B02D05C4B65
:103880000122DA615A4BDA695A4B12B29A82584BCA
:103890001B6A002B03DB564B1B6A1D2B02DD544BAE
:1038A00000221A62524B1A6A524B12B25A83504B80
:1038B0001B6B012B03DC4E4B1B6B002B02DA4C4BBA
:1038C00001221A634A4B1A6B4A4B12B21A84484BB4
:1038D0005B6B002B03DB464B5B6B642B02DD444BC5
:1038E00014225A63424B5A6B424B12B25A84404BD9
:1038F0001B69002B0AD03E4B1B69012B06D03C4BA9
:103900001B69022B02D03A4B01221A61384B1A690B
:10391000384B12B25A82364BDB6B012B03D1344B3E
:10392000DB6B022B02D0324B0122DA63304BDA6BB5
:10393000304B12B21A832E4B9B6B012B03D12C4BB5
:103940009B6B022B02D02A4B01229A63284B9A6B65
:10395000284B12B2DA82264B1B6C002B06D0244B6C
:103960001B6C012B02D0224B00221A64204B1A6CD4
:10397000204B12B29A841E4B5B6C002B06D01C4B62
:103980005B6C012B02D01A4B00225A64184B5A6C04
:10399000184B12B2DA84164B9B6C312B02DC144BA1
:1039A00032229A64124B9A6C124B12B21A85104B47
:1039B000DB6C002B0AD00E4BDB6C192B06D00C4BAA
:1039C000DB6C4B2B02D00A4B0022DA64084BDA6C1A
:1039D000084B12B25A85064B1B6D13F1320F0BDAEE
:1039E000034B6FF031021A650DE000BFF8120020A2
:1039F00000000020B8110020A24B1B6D282B02DD17
:103A0000A04B28221A659F4B1A6D9F4B12B29A85C4
:103A10009C4B5B6D1E2B0AD09A4B5B6D2D2B06D0F9
:103A2000984B5B6D3C2B02D0964B1E225A65954BF2
:103A30005A6D954B12B2DA85924B9B6DC82B04DC04
:103A4000914BB3F93030002B02DA8F4BC8221A8623
:103A50008C4B9A6D8C4B12B21A868C4B04221A70C6
:103A600040E68A4B1B78042B40F08580FB7F002BBF
:103A70001BD1854BB3F91430D8B2834BB3F91A304C
:103A8000D9B2814BB3F91C30DAB27F4BB3F9203095
:103A9000DCB27D4BB3F92230DBB200932346FEF754
:103AA00043F9FB7F0133FB771CE6FB7F012B0AD137
:103AB000754BB3F91230DBB21846FDF7D9FFFB7F27
:103AC0000133FB770EE6FB7F022B26D16E4BB3F959
:103AD0002430D8B26C4BB3F92630DCB26A4BB3F960
:103AE0002830DDB2684BB3F92A30DEB2664BB3F949
:103AF0002C30654AB2F92E20D2B26349B1F93010A8
:103B000089B202910192009333462A462146FFF77B
:103B1000F9F9FB7F0133FB77E4E5FB7F032B0BD146
:103B2000594B5B7C584A127C11461846FEF74AFCFA
:103B3000FB7F0133FB77D5E5FB7F042B11D1524B83
:103B400001221A74504B01225A744F4B5B7C4E4A2F
:103B5000127C11461846FEF735FCFB7F0133FB77DC
:103B6000C0E5FB7F052B7FF4BDAD0023FB77474B02
:103B700005221A70B6E5454B1B78052B7FF4B2ADD4
:103B8000434B18684FF0FF330093002301224FF698
:103B9000FF7112F017FFB860BB6803F00203002B3F
:103BA00017D0FDF733FDC7E90401D7E90423134318
:103BB0000FD0D7E90423CDE9022340F6B4030193E3
:103BC000344B009340F6B403324A3349002020F0CE
:103BD000F9FEBB6803F00403002B17D0FDF7E0FDEE
:103BE000C7E90401D7E9042313430FD0D7E904231D
:103BF000CDE9022340F6BB030193264B009340F628
:103C0000BB03244A2549002020F0DCFEBB6803F0FA
:103C10008003002B27D0FEF75DFD02460B461343C1
:103C20000CD040F6C20301931A4B009340F6C20336
:103C3000184A1B49002020F0C5FE14E0124BB3F9CE
:103C400016301A460F4B9A630E4B9B6B029340F64D
:103C5000C70301930F4B009340F6C7030D4A114968
:103C6000022020F0AFFEBB6803F02003002B30D011
:103C7000FEF78AFE02460B46134315D0024B002284
:103C80005A7026E000000020B8110020F812002031
:103C9000F412002048150808A070060810710608E4
:103CA000507106087871060840F6D5030193B04BB1
:103CB000009340F6D503AE4AAE49022020F082FEC2
:103CC000AD4B01225A70AC4BB3F918301A46AB4BCE
:103CD000DA63BB6803F04003002B08D0FEF7C0FF97
:103CE00002460B46134302D0A34B00225A70BB6816
:103CF00003F48063002B1AD09F4B5B7C1A469E4BCB
:103D00001B7C0393029240F6EA030193984B0093C5
:103D100040F6EA03964A9A49022020F053FE964B59
:103D20005B7C954A127C11461846FEF74BFBBB683C
:103D300003F40063002B1AD08F4B5B7C1A468E4B2A
:103D40001B7C0393029240F6EF030193884B009390
:103D500040F6EF03864A8A49022020F033FE864B64
:103D60005B7C854A127C11461846FEF72BFBBB682C
:103D700003F00803002B0DD07F4B01221A747E4BF9
:103D800001225A747C4B5B7C7B4A127C114618469C
:103D9000FEF718FBBB6803F48053002B1CD0764B56
:103DA000B3F91230029340F6FC030193704B009379
:103DB00040F6FC036E4A7349022020F003FE6E4B6E
:103DC000B3F91230DBB21846FDF752FE6A4BB3F975
:103DD00012301A46694B1A61BB6803F40053002B7A
:103DE0001BD0654B1B7C07EE903AF8EE677A624B6E
:103DF0005B7C07EE103AB8EE477A9FED633ADFED51
:103E0000622A9FED612AF7EE001AB0EE471AF0EE33
:103E1000670AB7EE000AFEF743F9BB6803F4804374
:103E2000002B53D0544BB3F914301A46524BB3F90C
:103E30001A301946504BB3F91C3018464E4BB3F9A3
:103E400020301C464C4BB3F9223006930594049065
:103E50000391029240F609130193454B009340F6FB
:103E60000913434A4949022020F0ACFD424BB3F903
:103E70001430D8B2404BB3F91A30D9B23E4BB3F933
:103E80001C30DAB23C4BB3F92030DCB23A4BB3F918
:103E90002230DBB200932346FDF746FF364BB3F9E1
:103EA00014301A46354BDA61334BB3F91A301A46DF
:103EB000324B1A62304BB3F920301A462F4B1A633B
:103EC0002D4BB3F922301A462C4B5A63BB6803F4CE
:103ED0000043002B00F08F80274BB3F924301A46A3
:103EE000254BB3F926301946234BB3F92830184631
:103EF000214BB3F92A301C461F4BB3F92C301D4619
:103F00001D4BB3F92E301E461B4BB3F930300893CE
:103F100007960695059404900391029240F61E13AD
:103F20000193134B009340F61E13114A18490220C7
:103F300020F048FD104BB3F92430D8B20E4BB3F942
:103F40002630DCB20C4BB3F92830DDB20A4BB3F9A2
:103F50002A30DEB2084BB3F92C30074AB2F92E20D2
:103F6000D2B20549B1F9301089B2029112E000BF16
:103F700048150808A8710608B811002000000020A4
:103F8000D4710608007206080000000024720608BA
:103F9000547206080192009333462A462146FEF7E2
:103FA000B1FF274BB3F924301A46264B1A64244B31
:103FB000B3F926301A46234B5A64214BB3F9283003
:103FC0001A46204B9A641E4BB3F92A301A461D4BF1
:103FD000DA641B4BB3F92C301A461A4B1A65184B8E
:103FE000B3F92E301A46174B5A65154BB3F93030DA
:103FF0001A46144B9A65BB6803F00103002B3FF48B
:1040000071AB104B01221A600E4B6422DA650D4829
:10401000FDF722FA02460B4613437FF463AB084BCD
:1040200001221A7040F63F130193074B009340F6AC
:104030003F13054A0549012020F0C4FCFFF752BB9D
:10404000B811002000000020481508088C720608EE
:1040500090B587B002AF4FF0EC024FF00003C7E914
:10406000022324F04BF87860FFF7F4F9C7E9020166
:10407000D7E9022313430ED040F65C130193284B7B
:10408000009340F65C13264A2649002020F09AFC53
:10409000D7E902233FE07B681C68234B0093002391
:1040A0004FF4006221492248A04702460B461343C1
:1040B00010D040F663130193194B009340F663133D
:1040C000174A1C49002020F07DFC4FF0FF024FF002
:1040D000000320E07B681C68174B009300234FF41B
:1040E000006216491648A04702460B46134310D0FB
:1040F00040F66A1301930A4B009340F66A13084A8C
:104100000C49002020F05EFC4FF0FF024FF000034E
:1041100001E0D7E90223104619461437BD4690BD89
:104120005C150808BC720608EC120020CD350108A9
:10413000F072060800730608F0120020BD36010870
:104140003473060880B582B000AF78600D4B1B68F1
:10415000002B0ED00C4B1B78052B0AD1094B1B688A
:104160007968184612F000FD4FF000024FF000038E
:1041700003E04FF0EC024FF00003104619460837F9
:10418000BD4680BDF4120020F812002080B584B036
:1041900000AFF860B9607A60BB68002B05D17A681F
:1041A0000021F8684DF09AFE04E07A68B968F86872
:1041B0004EF0BAFD00BF1037BD4680BD80B584B05B
:1041C00000AF786039607B68DB781F2B28BF1F2326
:1041D000FB731F22002138684DF080FE7B680C3392
:1041E000FA7B194638684EF09FFD00BF1037BD4678
:1041F00080BD80B58CB004AF3B600346FB710B46BD
:10420000BB7113467B71BB8EBB8197F82830BB73A3
:1042100097F82C30FB7307F10C0304331022396B31
:104220001846FFF7B3FF3B680C3307F10C0114226B
:1042300018464EF079FD3B68002242F014025A7293
:1042400000229A720022DA727B79BA79F979D62043
:1042500002901420019014200090386803F06FF849
:10426000034618462037BD4680BDF0B587B004AF81
:104270003B600346FB710B46BB7113467B713B6A87
:104280009B783A6AD278396A0431386AB0F900000A
:104290007E79BD79FC7903900291019200933B688D
:1042A000324629462046FFF7A4FF034618460C373E
:1042B000BD46F0BD80B584B000AF786039607B68E2
:1042C000DB78192B28BF1923FB73192200213868CA
:1042D0004DF004FE7B680C33FA7B194638684EF0CB
:1042E00023FD00BF1037BD4680BD80B58CB002AF46
:1042F000BA601A4687ED010A0346FB730B46BB738F
:1043000013467B737B683B617B7B3B7597F8303052
:104310007B7597F8383087F8263007F1100306339D
:104320001022796B1846FFF731FFBB680C3307F199
:104330001001172218464EF0F7FCBB68002242F02D
:1043400017025A7200229A720022DA72BA7BF97B43
:10435000A8230193172300931723B86803F013F8D9
:10436000034618462837BD4680BDB0B588B004AFB7
:10437000BA607B600346FB730B46BB737B681D7999
:104380007B685B797A6806327968D1ED007A796862
:10439000897DBC7BF87B029101920093B0EE670AA5
:1043A0002B46BA682146FFF7A0FF03461846103790
:1043B000BD46B0BD80B584B000AF786039607B6821
:1043C000DB781D2B28BF1D23FB731D2200213868BD
:1043D0004DF084FD7B680C33FA7B194638684EF04B
:1043E000A3FC00BF1037BD4680BD80B594B004AFBC
:1043F000BB6187ED050AC7ED040A87ED031AC7ED17
:10440000021A87ED012AC7ED002A0346FB770B4607
:10441000BB7713467B77BB6C7B627B69BB623B6976
:10442000FB62FB683B63BB687B637B68BB633B6889
:10443000FB63BB690C3307F124011C2218464EF0C4
:1044400073FCBB69002242F01E025A7200229A726B
:104450000022DA727B7FBA7FF97F272002901C202E
:1044600001901C200090B86902F069FF03461846CD
:104470004037BD4680BD80B584B002AF3B60034687
:10448000FB710B46BB7113467B713B691B683A6934
:10449000D2ED017A3A6992ED027A3A69D2ED036A75
:1044A0003A6992ED046A3A69D2ED055A3A6992ED99
:1044B000065A7A79B979F8790093F0EE452AB0EE88
:1044C000652AF0EE461AB0EE661AF0EE470AB0EE34
:1044D000670A3B68FFF789FF034618460837BD4661
:1044E00080BD80B598B004AF3B6287ED070AC7ED89
:1044F000060A87ED051AC7ED041A87ED032AC7EDF2
:10450000022A87ED013A034687F827300B4687F8E1
:104510002630134687F82530FB69FB62BB693B6395
:104520007B697B633B69BB63FB68FB63BB683B6484
:104530007B687B64B7F86030A7F8483097F858304C
:1045400087F84A3097F85C3087F84B3097F864303A
:1045500087F84C303B6A0C3307F12C0121221846B6
:104560004EF0E2FB3B6A002242F04C025A720022FB
:104570009A720022DA7297F8253097F8262097F879
:104580002710982002902120019021200090386A65
:1045900002F0D5FE034618465037BD4680BDF0B543
:1045A00087B004AF3B600346FB710B46BB711346FB
:1045B0007B713B6A9B7F3A6AD27F396A898B386A02
:1045C00090F820003C6AD4ED007A3C6A94ED017AC0
:1045D0003C6AD4ED026A3C6A94ED036A3C6AD4ED0D
:1045E000045A3C6A94ED055A3C6AD4ED064A7E7939
:1045F000BD79FC790390029101920093B0EE643A88
:10460000F0EE452AB0EE652AF0EE461AB0EE661AD4
:10461000F0EE470AB0EE670A3B683246294620466C
:10462000FFF75FFF034618460C37BD46F0BD80B567
:1046300084B000AF786039607B68DB78142B28BFCA
:104640001423FB731422002138684DF047FC7B686B
:104650000C33FA7B194638684EF066FB00BF103702
:10466000BD4680BD80B58AB004AF3B600346FB7198
:104670000B46BB7113467B71FB6AFB6097F82030D9
:104680003B7497F824307B7497F82830BB7497F804
:104690003030FB7403233B753B680C3307F10C018E
:1046A000092218464EF040FB3B6800225A72002255
:1046B0009A720022DA727B79BA79F9793220029003
:1046C0000920019009200090386802F038FE034666
:1046D00018461837BD4680BDF0B589B006AF3B60BF
:1046E0000346FB710B46BB7113467B713B6A1B791A
:1046F0003A6A5279396A8979386A00683C6AE47999
:1047000097F805C0BE79FD79049403900291019257
:1047100000933B68624631462846FFF7A3FF0346F5
:1047200018460C37BD46F0BD80B584B000AF786048
:1047300039607B68DB78092B28BF0923FB730922CA
:10474000002138684DF0CAFB7B680C33FA7B1946B0
:1047500038684EF0E9FA00BF1037BD4680BD80B51D
:1047600084B000AF78600B467B800023FB600023A1
:10477000BB607B881A46796802200FF087F9F860E1
:10478000FB6818461037BD4680BD000080B586B076
:1047900002AF78600B467B8023F0B0FCF860FB68CA
:1047A0005B691D4A12681046984702460B46134340
:1047B0000DD04FF4E8730193184B00934FF4E87356
:1047C000164A1749002020F0FDF8FF231FE07B88E0
:1047D0001A46796802200FF0F1F9B860FB689B690E
:1047E0000D4A12681046984702460B4613430DD0F7
:1047F0004FF4EC730193094B00934FF4EC73074AA9
:104800000849002020F0DEF8FF2300E0BB681846CE
:104810001037BD4680BD00BFE814002070150808A1
:10482000507506088075060880B58AB004AF00236D
:104830007B6023F063FC78617B691B6B3A1D10463B
:104840009847C7E90201D7E90223134311D0D7E9FA
:104850000223CDE9022340F2F5130193154B009397
:1048600040F2F513134A1449002020F0ABF800235E
:104870001BE0124B1B7C002B07D07A680F4BDB68C8
:10488000D31A42F21072934206D80D4B1B7883F074
:104890000103DBB2002B07D0094B00221A70074B33
:1048A00000221A74002300E0012318461837BD4681
:1048B00080BD00BF88150808B4750608D414002010
:1048C000D314002080B483B000AF0346FB71FB79A2
:1048D000442B01D1154B23E0FB79222B01D1144B42
:1048E0001EE0FB79082B01D1124B19E0FB790A2B52
:1048F00001D1114B14E0FB791A2B01D10F4B0FE0C2
:10490000FB793A2B01D10E4B0AE0FB794A2B01D1FE
:104910000C4B05E0FB790B2B01D10B4B00E00B4B53
:1049200018460C37BD465DF8047B7047E8750608ED
:10493000F0750608F8750608007606080876060879
:1049400010760608187606082076060828760608E7
:1049500090B5ADF5197D02AF024607F51673A3F5C4
:104960001673196007F51673A3F252231A8007F520
:104970001673A3F59673184640F223131A460021C6
:104980004DF0ACFA07F51673A3F5A8731846242367
:104990001A4600214DF0A2FA012387F85732BF23AF
:1049A00087F85632002387F855320023A7F8523291
:1049B000344B1B68DB889BB2DAB207F51673A3F59C
:1049C000A8739A772F4B1B681B899BB2DAB207F545
:1049D0001673A3F5A873DA7707F51673A3F5A87312
:1049E00007F51672A2F2522212889A8307F51673FF
:1049F000A3F5167307F584701C2219684EF094F91C
:104A000007F5967497F8552297F8561297F85702BB
:104A100007F5847300932346FFF7C1FD07F59672EF
:104A200007F108031146184602F0DBFC0346A7F81D
:104A30005232B7F85232002B0DD0B7F8522207F19C
:104A4000080197F85532184603F07BF94FF0000241
:104A50004FF000030FE040F2722301930A4B0093E2
:104A600040F27223084A094900201FF0ABFF4FF0C3
:104A7000E3024FF000031046194607F51777BD46CD
:104A800090BD00BFC81300209C15080830760608AA
:104A900090B5ADF5117D02AF012387F83732BF2302
:104AA00087F83632002387F83532122387F8283208
:104AB000082387F82932002387F82A320023C7F811
:104AC0002432042387F82B3207F50E73A3F59C7369
:104AD000184640F223131A4600214DF0FFF907F55E
:104AE000807497F8352297F8361297F8370207F551
:104AF000097300932346FFF7EFFD0023A7F8323236
:104B00003B464FF48072002118464DF0E7F907F557
:104B100080723B461146184602F063FC0346A7F834
:104B20003232B7F83232002B0CD0B7F83222394685
:104B300097F83532184603F004F94FF000024FF0B1
:104B400000030FE040F2C5230193094B009340F2AC
:104B5000C523074A074900201FF034FF4FF0E30246
:104B60004FF000031046194607F50F77BD4690BD7C
:104B7000B41508083076060890B58BB000AF04462F
:104B8000084611461A462346FB800346BB800B4667
:104B90007B8013467B70FFF747FE034683F00103DB
:104BA000DBB2002B04D04FF480724FF000033EE0E4
:104BB000CD23FB84B7F9063007EE903AB8EEE77ADA
:104BC000F2EE046AC7EE267AC7ED027AB7F904302E
:104BD00007EE903AB8EEE77AF2EE046AC7EE267A6C
:104BE000C7ED037AB7F9023007EE903AB8EEE77AEC
:104BF000F2EE046AC7EE267AC7ED047A4FF000039E
:104C00007B614FF00003BB617B7807EE903AF8EED2
:104C1000677AC7ED077A4FF080433B6207F10802DD
:104C2000FB8C11461846FFF793FE02460B461046D2
:104C300019462C37BD4690BD80B58EB000AF0346F7
:104C4000FB800B46BB8013467B80FFF7EDFD0346E0
:104C500083F00103DBB2002B04D04FF480724FF0DD
:104C6000000355E0CD23FB8607F1280300221A60DC
:104C70005A609A60B7F9063007EE903AF8EEE77A94
:104C8000F2EE046A87EEA67A244BD3ED007A67EE43
:104C9000277AC7ED0A7AB7F9043007EE903AF8EEB2
:104CA000E77AF2EE046A87EEA67A1C4BD3ED007A1F
:104CB00067EE277AC7ED0B7AB7F9023007EE903A24
:104CC000F8EEE77AF2EE046A87EEA67A134BD3ED9C
:104CD000007A67EE277AC7ED0C7ABB6AFB60FB6A45
:104CE0003B613B6B7B614FF00003BB614FF0000306
:104CF000FB614FF080433B624FF080437B6207F1E2
:104D00000C02FB8E11461846FFF722FE02460B46A8
:104D1000104619463837BD4680BD00BFE00200206E
:104D200090B5ADF5177D02AF07F51473A3F51373B6
:104D3000186007F51473A3F514731960FFF774FD79
:104D4000034683F00103DBB2002B04D04FF48072E2
:104D50004FF00003ADE007F51473A3F5A2731A46F4
:104D60000023136053609360D360136153619361B8
:104D70000023A7F84E32012387F84D32BF2387F86E
:104D80004C32002387F84B3207F51473A3F51373E5
:104D90001B681B6807EE903AB8EEE77AF2EE046AF9
:104DA000C7EE267A9FED467A27EE877ADFED456AD1
:104DB000C7EE267A07F51473A3F5A273C3ED027A42
:104DC00007F51473A3F513731B685B6807EE903A3D
:104DD000B8EEE77AF2EE046AC7EE267A9FED387AEB
:104DE00027EE877ADFED376AC7EE267A07F5147368
:104DF000A3F5A273C3ED017A07F51473A3F513733A
:104E00001B689B6807EE903AB8EEE77AF2EE046A08
:104E1000C7EE267A9FED2A7A27EE877ADFED296A98
:104E2000C7EE267A07F51473A3F5A273C3ED037AD0
:104E300007F51473A3F5A27307F51472A2F51472A3
:104E400012681A6007F5947497F84B2297F84C1281
:104E500097F84D0207F5867300932346FFF70BFB87
:104E600007F10C034FF48072002118464DF036F81C
:104E700007F5947207F10C031146184602F0B1FAD7
:104E80000346A7F84E32B7F84E32002B0DD0B7F8D4
:104E90004E2207F10C0197F84B32184602F051FFF1
:104EA0004FF000024FF0000303E04FF0E3024FF039
:104EB00000031046194607F51577BD4690BD00BFA3
:104EC000DB0F49400000344390B5ADF5177D02AFCC
:104ED00007F51473A3F513731860FFF7A5FC0346D9
:104EE00083F00103DBB2002B04D04FF480724FF04B
:104EF000000352E007F51473A3F5A2731A460023CA
:104F0000136053609360D360136153619361002316
:104F1000A7F84E32012387F84D32BF2387F84C3271
:104F2000002387F84B3207F5947497F84B2297F8D3
:104F30004C1297F84D0207F51473A3F513731B6811
:104F400000932346FFF791F907F10C034FF48072A9
:104F5000002118464CF0C2FF07F5947207F10C03CC
:104F60001146184602F03DFA0346A7F84E32B7F84C
:104F70004E32002B0DD0B7F84E2207F10C0197F8F6
:104F80004B32184602F0DDFE4FF000024FF00003F6
:104F900003E04FF0E3024FF000031046194607F517
:104FA0001577BD4690BD80B588B000AFFFF73CFCDB
:104FB000034683F00103DBB2002B04D04FF4807270
:104FC0004FF000031FE047F62313FB834FF000036D
:104FD0003B604FF000037B604FF00003BB604FF07D
:104FE0000003FB604FF000033B614FF000037B6167
:104FF0004FF07E53BB613A46FB8B11461846FFF7D4
:10500000A7FC02460B46104619462037BD4680BD18
:1050100080B588B000AFFFF707FC034683F00103BB
:10502000DBB2002B04D04FF480724FF000031FE07E
:1050300047F62313FB834FF000033B604FF0000360
:105040007B604FF00003BB604FF00003FB604FF04C
:1050500000033B614FF000037B614FF08043BB6175
:105060003A46FB8B11461846FFF772FC02460B4688
:10507000104619462037BD4680BD80B58AB000AFC6
:105080000346FB71FFF7D0FB034683F00103DBB25D
:10509000002B04D04FF480724FF0000324E047F659
:1050A0002313FB844FF00003BB604FF00003FB6051
:1050B0004FF000033B614FF000037B614FF00003B2
:1050C000BB61FB7907EE903AF8EE677AC7ED077A95
:1050D0004FF081433B6207F10802FB8C11461846F2
:1050E000FFF736FC02460B46104619462837BD46E8
:1050F00080BD000080B59EB002AF786022F0FEFF58
:10510000F8667B68002B00F001827B685A7A997AF6
:1051100009020A43DB7A1B0413431B2B40DC002BE0
:10512000C0F2F7811B2B00F2F48101A252F823F0A8
:10513000AD5101081152010813550108135501081A
:10514000135501081355010813550108135501089B
:10515000135501081355010813550108135501088B
:10516000135501081355010813550108135501087B
:10517000135501081355010813550108135501086B
:105180001355010813550108AD54010813550108C2
:105190001355010813550108135501083D54010822
:1051A00040F20912934200F0CA80B2E107F16003B5
:1051B00019467868FFF7B8FAB44B1B7883F00103FF
:1051C000DBB2002B10D0B14B01221A7097F8663079
:1051D0001846FFF777FB034600934FF48463AC4A0D
:1051E000AC4902201FF0EEFB97F86620AA4B1B6823
:1051F0009A807B68DA79A84B1B68DA807B681A7A18
:10520000A54B1B681A81FB6E1B6BA448984780E175
:1052100007F10C0319467868FEF7D0FF7B8C03F08A
:105220000403002B08D17B8C03F48043002B03D1B3
:105230007B8C1BB2002B05DA974B1B68012283F88D
:105240002E2014E0944B1B68002283F82E207B8CC8
:1052500003F01003002B05D08F4B1B68012283F84D
:10526000B82004E08C4B1B68002283F8B8207B8CAC
:1052700003F40053002B05D0874B1B68012283F8F1
:105280002D2004E0844B1B68012283F82D20824BE3
:105290001B68012283F82F207B8C03F00103002B75
:1052A00005D07D4B1B68022283F8302004E07A4B46
:1052B0001B68002283F83020774B1B6893F831205D
:1052C000002283F8312093F83220002283F8322024
:1052D00093F83320002283F8332093F834200022FF
:1052E00083F834206C4B1B6893F83520002283F838
:1052F000352093F83620002283F8362093F83720A3
:10530000002283F8372093F83820002283F83820D1
:10531000614B1B6893F83920002283F8392093F8F9
:105320003A20002283F83A2093F83B20002283F8A9
:105330003B2093F83C20002283F83C20E9E007F171
:105340004C0319467868FFF772F9D7ED157AB2EE7B
:10535000047A67EE877A504B1B68FDEEE77A17EE0A
:10536000902A9A64D7ED147AB2EE047A67EE877ABF
:10537000494B1B68FDEEE77A17EE902ADA64D7ED09
:10538000177A9FED477AF4EEC77AF1EE10FA07DD4F
:10539000D7ED177A9FED437A77EEC77AC7ED177A84
:1053A000D7ED177A9FED407AF4EEC77AF1EE10FA56
:1053B00007D5D7ED177A9FED3B7A77EE877AC7ED61
:1053C000177AD7ED177AB2EE047A67EE877A324B06
:1053D0001B68FDEEE77A17EE902A1A65D7ED167A6C
:1053E0009FED2F7AF4EEC77AF1EE10FA07DDD7EDD4
:1053F000167A9FED2C7A77EEC77AC7ED167AD7ED3D
:10540000167A9FED297AF4EEC77AF1EE10FA07D5F5
:10541000D7ED167A9FED237A77EE877AC7ED167A65
:10542000D7ED167AB2EE047A67EE877A1A4B1B68CC
:10543000FDEEE77A17EE902A5A646AE007F12C0332
:1054400019467868FEF7B6FFB7F940301946124B97
:105450001A680B469B000B445B00C2F85B30B7F93F
:10546000423019460C4B1A680B469B000B445B00FC
:10547000C2F85F30B7F944301946074B1A680B463B
:105480009B000B445B00C2F8633042E0D314002061
:10549000CC15080860760608C8130020E014002028
:1054A000000034430000B443000034C3FB6E5B696A
:1054B000194A12681046984702460B4613430BD010
:1054C00040F2A9430193154B009340F2A943134ABC
:1054D000134900201FF076FA786800F047FBFB6E56
:1054E0009B690D4A12681046984702460B461343C3
:1054F0000ED04FF496630193084B00934FF49663DC
:10550000064A084900201FF05DFA01E000BF00E0F4
:1055100000BF7037BD4680BDEC140020CC150808D4
:10552000507506088075060880B483B000AF034646
:10553000FB71FB79054A1B01134404331B681846B1
:105540000C37BD465DF8047B704700BF600000204B
:1055500080B483B000AF194B00221A60184B0022B0
:105560001A600023FB711EE0FB79164A1B011344ED
:10557000083300221A80FB79124A1B0113440A33B4
:1055800000221A70FB790F4A1B0113440B330022CF
:105590001A70FB790B4A1B0113440C3300221A705A
:1055A000FB790133FB71FB79272BDDD900BF00BFED
:1055B0000C37BD465DF8047B704700BFCC1300205C
:1055C000D01300206000002080B483B000AF00231F
:1055D000FB710CE0FB790B4A1B0113440A331B7867
:1055E000002B01D1002306E0FB790133FB71FB792D
:1055F000272BEFD9012318460C37BD465DF8047BF5
:10560000704700BF6000002080B483B000AF034645
:105610003960FB71FB790D4A1B0113440C331B7875
:10562000002B09D0FB79094A1B0113440833B3F955
:1056300000203B681A8002E03B6800221A8000BF0D
:105640000C37BD465DF8047B704700BF600000204A
:1056500080B5ADF51A7D04AF024607F51673A3F2C7
:1056600051231A7007F51673A3F515730A461A80AD
:1056700022F044FDC7F85402012387F85332BF23B8
:1056800087F85232002387F8513207F51673A3F2D8
:1056900051231B786A4A1B0113440A331B78032BDE
:1056A00013D107F51673A3F251231B78644A1B012B
:1056B00013440833B3F9003007F51672A2F51572DA
:1056C000B2F900209A4200F0B68007F51673A3F2F3
:1056D00051231B785A4A1B011344083307F51672ED
:1056E000A2F5157212881A8007F51673A3F25123DA
:1056F0001B78534A1B0113440A3302221A7007F520
:105700001673A3F251231B784D4A1B0113440B332C
:1057100000221A7007F50C7300221A605A609A6012
:10572000DA601A615A6107F51673A3F51573B3F9B8
:10573000003007EE903AF8EEE77AC7ED8C7A414BED
:105740001B68DB889BB2DBB287F834323D4B1B68A9
:105750001B899BB2DBB287F8353207F51673A3F2CB
:1057600051231B781846FFF7DFFE014607F50C733F
:10577000063310221846FEF709FD032387F8463248
:1057800007F50C7307F5867297F8521297F85302D3
:10579000FEF7EBFD07F51673A3F5137300221A60ED
:1057A0000433FC22002118464CF098FB002387F8B4
:1057B000503207F5867207F10C031146184601F0C6
:1057C00010FE034687F8503297F85032002B0AD06B
:1057D00097F850329AB207F10C0197F851321846F7
:1057E00002F0AFFA0BE040F2A6530193164B009380
:1057F00040F2A653144A154900201FF0E3F8D7F8E9
:1058000054321B6B12489847C7E99201D7E992239B
:10581000134311D0D7E99223CDE9022340F2AD53CF
:105820000193094B009340F2AD53074A0949002008
:105830001FF0C8F800E000BF07F51677BD4680BD31
:1058400060000020C8130020E4150808B47606089C
:10585000D0130020E076060880B5ADF51E7D04AFBC
:1058600022F04CFCC7F860020023C7F85032D7F88A
:1058700060321B6B07F5147210469847C7E9960112
:10588000D7E9962313430FD0D7E99623CDE9022316
:1058900040F2BD530193AE4B009340F2BD53AC4A6E
:1058A000AC4900201FF08EF8012387F85732BF2340
:1058B00087F85632002387F85532002387F867327D
:1058C0006DE097F86732A44A1B0113440A331B7832
:1058D000002B08D097F867329F4A1B0113440A3304
:1058E0001B78012B56D1D7F850229C4B1B68D31A3A
:1058F000642B4FD9D7F85032984A136097F8673223
:10590000954A1B0113440C331B7883F00103DBB26F
:10591000002B3FD007F50F7300221A605A609A607F
:10592000DA601A618E4B1B68DB889BB2DBB287F8AA
:105930003E328B4B1B681B899BB2DBB287F83F3230
:1059400097F86732844A1B0113441B781BB2A7F8EF
:105950003C3297F867321846FFF7E6FD014607F537
:105960000F73043310221846FEF710FC07F50F736F
:105970001846FFF7A9FA97F8673277491A010A44DF
:105980000B3212780132D1B2734A1B0113440B332C
:105990000A461A7097F86732013387F8673297F82A
:1059A0006732272B8DD9002387F86632C4E097F839
:1059B0006632694A1B0113440A331B78022B40F0FC
:1059C000AB80D7F85022674B1B68D31A4FF4FA729A
:1059D000934240F2A180D7F85032624A136007F533
:1059E000097300221A605A609A60DA601A615A617B
:1059F00097F86632584A1B0113440833B3F9003054
:105A000007EE903AF8EEE77AC7ED897A544B1B68B7
:105A1000DB889BB2DBB287F82832514B1B681B89AD
:105A20009BB2DBB287F8293297F866321846FFF747
:105A30007BFD014607F50973063310221846FEF771
:105A4000A5FB032387F83A3207F5097307F580723F
:105A500097F8561297F85702FEF787FC07F51A7366
:105A6000A3F51A7300221A600433FC2200211846A1
:105A70004CF034FA002387F8543207F580723B4625
:105A80001146184601F0ADFC034687F8543297F8EA
:105A90005432002B09D097F854329AB2394697F80D
:105AA0005532184602F04DF90BE040F209630193BC
:105AB000274B009340F20963254A2B4900201EF032
:105AC00081FF97F86632244A1B0113440C331B787C
:105AD00083F00103DBB2002B0ED097F866321E492B
